:020000040800F2
:1000000000000420998D0008998600089F8600084A
:10001000A5860008AB860008B18600080000000035
:10002000000000000000000000000000B78600088B
:10003000C586000800000000D3860008E18600089D
:10004000E98D0008E98D0008E98D0008E98D0008B8
:10005000E98D0008E98D0008E98D0008E98D0008A8
:10006000ED860008E98D0008E98D0008E98D00089B
:10007000E98D0008E98D0008E98D0008E98D000888
:10008000E98D0008E98D0008E98D0008E98D000878
:10009000E98D0008E98D0008E98D0008E98D000868
:1000A000E98D0008E98D0008E98D0008E98D000858
:1000B000FD860008E98D0008E98D0008E98D00083B
:1000C000E98D000811870008E98D0008E98D000816
:1000D000E98D0008E98D0008E98D0008E98D000828
:1000E00025870008E98D0008E98D0008E98D0008E2
:1000F000E98D0008E98D0008E98D0008E98D000808
:10010000E98D0008E98D0008E98D0008E98D0008F7
:10011000E98D0008C5870008E98D0008DD87000823
:10012000F187000805880008E98D0008E98D0008BE
:100130001988000800000000000000000000000016
:100140000000000000000000000000002D880008F2
:1001500041880008E98D0008E98D0008E98D000854
:1001600055880008E98D0008E98D0008E98D000830
:10017000E98D0008E98D0008000000000000000083
:10018000E98D0008E98D0008E98D000869880008FC
:10019000E98D0008E98D000800000000E98D0008E5
:1001A000000000000000000000000000E98D0008D1
:1001B000E98D0008E98D0008000000000000000043
:1001C000000000000000000000000000000000002F
:1001D000000000000000000000000000818800080E
:1001E00010B5054C237833B9044B13B10448AFF371
:1001F00000800123237010BD6C050020000000006A
:100200006C0B020808B5034B1BB103490348AFF35D
:10021000008008BD00000000700500206C0B020883
:1002200010F8012B11F8013B012A28BF9A42F7D0A0
:10023000D01A7047034613F8012B002AFBD1181A75
:1002400001387047000000000000000000000000BE
:1002500001F0FF01102A2BDB10F0070F08D010F877
:10026000013B013A8B422DD010F0070F42B3F6D17B
:10027000F0B441EA012141EA014122F007047FF094
:1002800000070023F0E80256083C85EA010586EAEB
:10029000010685FA47F5A3FA87F586FA47F6A5FA27
:1002A00087F68EB9EED1F0BC01F0FF0102F0070233
:1002B00032B110F8013B013A83EA010313B1F8D1DE
:1002C0000020704701387047002D06BF35460338BF
:1002D000073815F0010F07D1013015F4807F02BFF8
:1002E000013015F4C03F0130F0BC0138704700BF49
:1002F00081F0004102E000BF83F0004330B54FEAD7
:1003000041044FEA430594EA050F08BF90EA020F43
:100310001FBF54EA000C55EA020C7FEA645C7FEAD6
:10032000655C00F0E2804FEA5454D4EB5555B8BFF9
:100330006D420CDD2C4480EA020281EA030382EA6A
:10034000000083EA010180EA020281EA0303362DFC
:1003500088BF30BD11F0004F4FEA01314FF4801CCF
:100360004CEA113102D0404261EB410113F0004FE1
:100370004FEA03334CEA133302D0524263EB430398
:1003800094EA050F00F0A780A4F10104D5F1200E36
:100390000DDB02FA0EFC22FA05F2801841F1000191
:1003A00003FA0EF2801843FA05F359410EE0A5F165
:1003B00020050EF1200E012A03FA0EFC28BF4CF096
:1003C000020C43FA05F3C01851EBE37101F000454C
:1003D00007D54FF0000EDCF1000C7EEB00006EEB59
:1003E0000101B1F5801F1BD3B1F5001F0CD34908E3
:1003F0005FEA30004FEA3C0C04F101044FEA44523A
:1004000012F5800F80F09A80BCF1004F08BF5FEAC0
:10041000500C50F1000041EB045141EA050130BDA0
:100420005FEA4C0C404141EB0101013C28BFB1F5B2
:10043000801FE9D291F0000F04BF01460020B1FAFD
:1004400081F308BF2033A3F10B03B3F120020CDAD0
:100450000C3208DD02F1140CC2F10C0201FA0CF0AE
:1004600021FA02F10CE002F11402D8BFC2F1200C13
:1004700001FA02F120FA0CFCDCBF41EA0C019040C9
:10048000E41AA2BF01EB0451294330BD6FEA040412
:100490001F3C1CDA0C340EDC04F11404C4F12002FD
:1004A00020FA04F001FA02F340EA030021FA04F30F
:1004B00045EA030130BDC4F10C04C4F1200220FA66
:1004C00002F001FA04F340EA0300294630BD21FAA4
:1004D00004F0294630BD94F0000F83F4801306BF6A
:1004E00081F480110134013D4EE77FEA645C18BF5E
:1004F0007FEA655C29D094EA050F08BF90EA020FF5
:1005000005D054EA000C04BF1946104630BD91EAEC
:10051000030F1EBF0021002030BD5FEA545C05D1EF
:100520004000494128BF41F0004130BD14F580042E
:100530003CBF01F5801130BD01F0004545F0FE41A2
:1005400041F470014FF0000030BD7FEA645C1ABFD7
:10055000194610467FEA655C1CBF0B46024650EA0E
:10056000013406BF52EA033591EA030F41F400213A
:1005700030BD00BF90F0000F04BF0021704730B5C0
:100580004FF4806404F132044FF000054FF0000195
:1005900050E700BF90F0000F04BF0021704730B556
:1005A0004FF4806404F1320410F0004548BF40422B
:1005B0004FF000013EE700BF42004FEAE2014FEA80
:1005C00031014FEA02701FBF12F07F4393F07F4F5B
:1005D00081F06051704732F07F4208BF704793F05E
:1005E0007F4F04BF41F40021704730B54FF4607471
:1005F00001F0004521F000411CE700BF50EA010274
:1006000008BF704730B54FF000050AE050EA01021C
:1006100008BF704730B511F0004502D5404261EB8C
:1006200041014FF4806404F132045FEA915C3FF4CD
:10063000D8AE4FF003025FEADC0C18BF03325FEA6A
:10064000DC0C18BF033202EBDC02C2F1200300FA1B
:1006500003FC20FA02F001FA03FE40EA0E0021FA40
:1006600002F11444BDE600BF70B54FF0FF0C4CF42E
:10067000E06C1CEA11541DBF1CEA135594EA0C0FE0
:1006800095EA0C0F00F0DEF82C4481EA030621EA1B
:100690004C5123EA4C5350EA013518BF52EA033556
:1006A00041F4801143F4801338D0A0FB02CE4FF008
:1006B0000005E1FB02E506F00042E0FB03E54FF038
:1006C0000006E1FB03569CF0000F18BF4EF0010E30
:1006D000A4F1FF04B6F5007F64F5407404D25FEA2C
:1006E0004E0E6D4146EB060642EAC62141EA5551DF
:1006F0004FEAC52040EA5E504FEACE2EB4F1FD0C21
:1007000088BFBCF5E06F1ED8BEF1004F08BF5FEA9E
:10071000500E50F1000041EB045170BD06F0004650
:1007200046EA010140EA020081EA0301B4EB5C04FD
:10073000C2BFD4EB0C0541EA045170BD41F48011F5
:100740004FF0000E013C00F3AB8014F1360FDEBF1A
:10075000002001F0004170BDC4F10004203C35DAF6
:100760000C341BDC04F11404C4F1200500FA05F379
:1007700020FA04F001FA05F240EA020001F000421A
:1007800021F0004110EBD37021FA04F642EB060190
:100790005EEA430E08BF20EAD37070BDC4F10C04BA
:1007A000C4F1200500FA04F320FA05F001FA04F27E
:1007B00040EA020001F0004110EBD37041F100016A
:1007C0005EEA430E08BF20EAD37070BDC4F1200575
:1007D00000FA05F24EEA020E20FA04F301FA05F2DD
:1007E00043EA020321FA04F001F0004121FA04F285
:1007F00020EA020000EBD3705EEA430E08BF20EA55
:10080000D37070BD94F0000F0FD101F0004640008E
:1008100041EB010111F4801F08BF013CF7D041EA10
:10082000060195F0000F18BF704703F00046520014
:1008300043EB030313F4801F08BF013DF7D043EAE5
:100840000603704794EA0C0F0CEA135518BF95EA9B
:100850000C0F0CD050EA410618BF52EA4306D1D122
:1008600081EA030101F000414FF0000070BD50EA41
:10087000410606BF1046194652EA430619D094EACB
:100880000C0F02D150EA013613D195EA0C0F05D1B5
:1008900052EA03361CBF104619460AD181EA030109
:1008A00001F0004141F0FE4141F470014FF00000C1
:1008B00070BD41F0FE4141F4780170BD70B54FF05C
:1008C000FF0C4CF4E06C1CEA11541DBF1CEA1355DC
:1008D00094EA0C0F95EA0C0F00F0A7F8A4EB0504BE
:1008E00081EA030E52EA03354FEA013100F08880B5
:1008F0004FEA03334FF0805545EA131343EA12637E
:100900004FEA022245EA111545EA10654FEA002632
:100910000EF000419D4208BF964244F1FD0404F5EB
:10092000407402D25B084FEA3202B61A65EB030547
:100930005B084FEA32024FF480104FF4002CB6EB04
:10094000020E75EB030E22BFB61A754640EA0C0084
:100950005B084FEA3202B6EB020E75EB030E22BFC4
:10096000B61A754640EA5C005B084FEA3202B6EB05
:10097000020E75EB030E22BFB61A754640EA9C00C4
:100980005B084FEA3202B6EB020E75EB030E22BF94
:10099000B61A754640EADC0055EA060E18D04FEA52
:1009A000051545EA16754FEA06164FEAC30343EAF2
:1009B00052734FEAC2025FEA1C1CC0D111F4801FBF
:1009C0000BD141EA00014FF000004FF0004CB6E7B8
:1009D00011F4801F04BF01430020B4F1FD0C88BF57
:1009E000BCF5E06F3FF6AFAEB5EB030C04BFB6EB62
:1009F000020C5FEA500C50F1000041EB045170BD55
:100A00000EF0004E4EEA113114EB5C04C2BFD4EB81
:100A10000C0541EA045170BD41F480114FF0000E05
:100A2000013C90E645EA060E8DE60CEA135594EA81
:100A30000C0F08BF95EA0C0F3FF43BAF94EA0C0F84
:100A40000AD150EA01347FF434AF95EA0C0F7FF4F9
:100A500025AF104619462CE795EA0C0F06D152EA4D
:100A600003353FF4FDAE1046194622E750EA410631
:100A700018BF52EA43067FF4C5AE50EA41047FF442
:100A80000DAF52EA43057FF4EBAE12E74FF0FF3CA7
:100A900006E000BF4FF0010C02E000BF4FF0010C78
:100AA0004DF804CD4FEA410C7FEA6C5C4FEA430CF1
:100AB00018BF7FEA6C5C1BD001B050EA410C0CBF40
:100AC00052EA430C91EA030F02BF90EA020F0020A2
:100AD000704710F1000F91EA030F58BF994208BF09
:100AE00090422CBFD8176FEAE37040F001007047C6
:100AF0004FEA410C7FEA6C5C02D150EA013C07D11D
:100B00004FEA430C7FEA6C5CD6D152EA033CD3D067
:100B10005DF8040B704700BF8446104662468C4661
:100B20001946634600E000BF01B5FFF7B7FF002894
:100B300048BF10F1000F01BD4DF808EDFFF7F4FFBD
:100B40000CBF012000205DF808FB00BF4DF808ED48
:100B5000FFF7EAFF34BF012000205DF808FB00BF6B
:100B60004DF808EDFFF7E0FF94BF012000205DF88D
:100B700008FB00BF4DF808EDFFF7CEFF94BF012042
:100B800000205DF808FB00BF4DF808EDFFF7C4FF3B
:100B900034BF012000205DF808FB00BF4FEA410C84
:100BA0007FEA6C5C02D150EA013C0AD14FEA430C67
:100BB0007FEA6C5C02D152EA033C02D14FF00000A4
:100BC00070474FF0010070474FEA410212F50012E2
:100BD00015D211D56FF47873B3EB625212D94FEA84
:100BE000C12343F0004343EA505311F0004F23FA6E
:100BF00002F018BF404270474FF00000704750EAC3
:100C0000013005D111F0004008BF6FF0004070477F
:100C10004FF00000704700BF4A0011D212F50012D9
:100C200011D20DD56FF47873B3EB62520ED44FEA44
:100C3000C12343F0004343EA505323FA02F07047C4
:100C40004FF00000704750EA013002D14FF0FF3002
:100C500070474FF0000070474FEA4102B2F1E043A5
:100C600024BFB3F5001CDCF1FE5C0DD901F0004C93
:100C70004FEAC0024CEA5070B2F1004F40EB8300E3
:100C800008BF20F00100704711F0804F21D113F10F
:100C90003872BCBF01F00040704741F480114FEA48
:100CA0005252C2F11802C2F1200C10FA0CF320FAD1
:100CB00002F018BF40F001004FEAC1234FEAD323EE
:100CC00003FA0CFC40EA0C0023FA02F34FEA430358
:100CD000CCE77FEA625307D150EA01331EBF4FF0E1
:100CE000FE4040F44000704701F0004040F0FE40FC
:100CF00040F40000704700BF53B94AB9002908BF4B
:100D000000281CBF4FF0FF314FF0FF3000F0AAB9B0
:100D1000ADF1080C6DE904CE00F03CF8DDF804E01C
:100D2000DDE9022304B0704738B5002200230446F1
:100D30000D46FFF70BFF28B920462946BDE838408D
:100D400000F00AB8204605F1004100F005F84042E5
:100D500061EB410138BD00BFD0B50C4B0022064607
:100D60000F46FFF781FCFFF757FF0446FFF702FC31
:100D7000074B0022FFF778FC02460B463046394607
:100D8000FFF7BAFAFFF748FF2146D0BD0000F03D5B
:100D90000000F0412DE9F047089D04468E46002BE7
:100DA0004DD18A42944669D9B2FA82F252B101FA1F
:100DB00002F3C2F1200120FA01F10CFA02FC41EA2F
:100DC000030E94404FEA1C48210CBEFBF8F61FFAB4
:100DD0008CF708FB16E341EA034306FB07F199424F
:100DE0000AD91CEB030306F1FF3080F01F81994202
:100DF00040F21C81023E63445B1AA4B2B3FBF8F0DC
:100E000008FB103344EA034400FB07F7A7420AD962
:100E10001CEB040400F1FF3380F00A81A74240F28A
:100E200007816444023840EA0640E41B00261DB1F5
:100E3000D4400023C5E900433146BDE8F0878B422A
:100E400009D9002D00F0EF800026C5E900013046E9
:100E50003146BDE8F087B3FA83F6002E4AD18B42C3
:100E600002D3824200F2F980841A61EB030301206D
:100E70009E46002DE0D0C5E9004EDDE702B9FFDE59
:100E8000B2FA82F2002A40F09280A1EB0C014FEA04
:100E90001C471FFA8CFE0126200CB1FBF7F307FB61
:100EA000131140EA01410EFB03F0884208D91CEB04
:100EB000010103F1FF3802D2884200F2CB804346A1
:100EC000091AA4B2B1FBF7F007FB101144EA014480
:100ED0000EFB00FEA64508D91CEB040400F1FF310F
:100EE00002D2A64500F2BB800846A4EB0E0440EAFD
:100EF00003409CE7C6F12007B34022FA07FC4CEA06
:100F0000030C20FA07F401FA06F31C43F9404FEAF8
:100F10001C4900FA06F3B1FBF9F8200C1FFA8CFE0D
:100F200009FB181140EA014108FB0EF0884202FA61
:100F300006F20BD91CEB010108F1FF3A80F0888022
:100F4000884240F28580A8F102086144091AA4B2DF
:100F5000B1FBF9F009FB101144EA014100FB0EFE60
:100F60008E4508D91CEB010100F1FF346CD28E458F
:100F70006AD90238614440EA0840A0FB0294A1EB20
:100F80000E01A142C846A64656D353D05DB1B3EB7D
:100F9000080261EB0E0101FA07F722FA06F3F140AD
:100FA0001F43C5E9007100263146BDE8F087C2F154
:100FB0002003D8400CFA02FC21FA03F391400143CC
:100FC0004FEA1C471FFA8CFEB3FBF7F007FB103605
:100FD0000B0C43EA064300FB0EF69E4204FA02F4B1
:100FE00008D91CEB030300F1FF382FD29E422DD904
:100FF000023863449B1B89B2B3FBF7F607FB163339
:1010000041EA034106FB0EF38B4208D91CEB0101B8
:1010100006F1FF3816D28B4214D9023E6144C91A38
:1010200046EA004638E72E46284605E70646E3E648
:101030001846F8E64B45A9D2B9EB020864EB0C0E52
:101040000138A3E74646EAE7204694E74046D1E761
:10105000D0467BE7023B614432E7304609E764440F
:10106000023842E7704700BF80B500AF044B012251
:101070001A7007220349044808F04AF800BF80BDEF
:10108000080000208C050020F440002080B483B0CC
:1010900000AF0346FB71044AFB79137000BF0C37A5
:1010A000BD465DF8047B70478805002080B400AF22
:1010B000074B1B6807EE903AF8EE677A9FED057ACA
:1010C00067EE877AB0EE670ABD465DF8047B70472D
:1010D0008C05002000404E3F80B400AF074B5B689A
:1010E00007EE903AF8EE677A9FED057A67EE877A19
:1010F000B0EE670ABD465DF8047B70478C050020A2
:1011000000404E3F80B400AF074B9B6807EE903A1B
:10111000F8EE677A9FED057A67EE877AB0EE670A98
:10112000BD465DF8047B70478C05002000404E3FB3
:1011300080B400AF074B5B6907EE903AF8EE677A30
:101140009FED057A67EE877AB0EE670ABD465DF8D7
:10115000047B70478C05002000404E3F00000000DB
:1011600080B500AFFFF7CEFF10EE103A1846FFF73C
:1011700023FA4FF000021A4BFFF7A0FB02460B4682
:10118000104619464FF00002164BFFF7B5F802461D
:101190000B46104619460EA3D3E90023FFF78EFB3A
:1011A00002460B46104619460BA3D3E90023FFF76E
:1011B0005BFA02460B4610461946FFF74DFD034603
:1011C00007EE903AB0EE670A80BD00BFAFF3008033
:1011D0009A9999999999E93F88F4DBD781DB49403D
:1011E00000408F400000E03F80B500AFFFF75EFF9A
:1011F00010EE103A1846FFF7DFF94FF000021A4BD5
:10120000FFF75CFB02460B46104619464FF0000202
:10121000164BFFF771F802460B46104619460EA30F
:10122000D3E90023FFF74AFB02460B461046194656
:101230000BA3D3E90023FFF717FA02460B4610462B
:101240001946FFF709FD034607EE903AB0EE670A2C
:1012500080BD00BFAFF300809A9999999999E93FB1
:1012600088F4DBD781DB494000408F400000E03F3D
:1012700080B500AFFFF75CFF10EE103A1846FFF79D
:101280009BF94FF000021A4BFFF718FB02460B4682
:10129000104619464FF00002164BFFF72DF8024694
:1012A0000B46104619460EA3D3E90023FFF706FBB1
:1012B00002460B46104619460BA3D3E90023FFF75D
:1012C000D3F902460B4610461946FFF7C5FC034604
:1012D00007EE903AB0EE670A80BD00BFAFF3008022
:1012E0009A9999999999E93F88F4DBD781DB49402C
:1012F00000408F400000E03F80B582B000AF184B47
:101300005B68FB80FB88174A12889B1A07EE903AAD
:10131000B8EEE77A144BD3ED007A67EE277A9FEDAB
:10132000137A67EE877A17EE900AFFF745F90AA35A
:10133000D3E90023FFF798F902460B4610461946F9
:10134000FFF78AFC034607EE903AB0EE670A0837CB
:10135000BD4680BDAFF300802DE92807B389E73F84
:101360008C05002000000020040000200F86823F32
:1013700080B400AF074BDB6807EE903AF8EE677A6F
:101380009FED057A67EE877AB0EE670ABD465DF895
:10139000047B70478C05002000404E3F80B400AFB6
:1013A000074B1B6907EE903AF8EE677A9FED057AD6
:1013B00067EE877AB0EE670ABD465DF8047B70473A
:1013C0008C05002000404E3F80B400AF074B9B6966
:1013D00007EE903AF8EE677A9FED057A67EE877A26
:1013E000B0EE670ABD465DF8047B70478C050020AF
:1013F00000404E3F80B483B000AF0346FB71044A07
:10140000FB79137000BF0C37BD465DF8047B704755
:101410008905002080B400AF034B1B691846BD4608
:101420005DF8047B704700BFA805002080B400AFC2
:10143000034B9B691846BD465DF8047B704700BFAF
:10144000A805002080B400AF034BDB691846BD46F9
:101450005DF8047B704700BFA805002080B400AF92
:10146000074B1B6807EE903AF8EE677A9FED057A16
:1014700067EE877AB0EE670ABD465DF8047B704779
:10148000A805002000404E3F80B400AF074B5B68CA
:1014900007EE903AF8EE677A9FED057A67EE877A65
:1014A000B0EE670ABD465DF8047B7047A8050020D2
:1014B00030EDDD3B80B400AF074B9B6807EE903A00
:1014C000F8EE677A9FED057A67EE877AB0EE670AE5
:1014D000BD465DF8047B7047A8050020FEC6683A4B
:1014E00080B400AF074BDB6807EE903AF8EE677AFE
:1014F0009FED057A67EE877AB0EE670ABD465DF824
:10150000047B7047A8050020FE0AB03A80B400AF03
:10151000074B1B6907EE903AF8EE677A9FED057A64
:1015200067EE877AB0EE670ABD465DF8047B7047C8
:10153000A80500206A40D33A80B400AF074B5B692E
:1015400007EE903AF8EE677A9FED057A67EE877AB4
:10155000B0EE670ABD465DF8047B7047A805002021
:1015600000404E3F80B400AF074B9B6907EE903AB6
:10157000F8EE677A9FED057A67EE877AB0EE670A34
:10158000BD465DF8047B7047A80500206DD0183E6D
:1015900080B400AF074BDB6907EE903AF8EE677A4C
:1015A0009FED057A67EE877AB0EE670ABD465DF873
:1015B000047B7047A80500207D8FF73D80B582B081
:1015C00000AF124807F09EFE114B00221A7007224E
:1015D00010490E4807F09CFD07F058FC78600AE0BF
:1015E00007F054FC02467B68D31A032B03D90A4840
:1015F00004F07AFB06E0064B1B7883F00103DBB2B4
:10160000002BEDD10837BD4680BD00BFF44000205F
:10161000880500208C050020880B02082DE9B04FBA
:101620009AB00CAF414807F06DFE414B00221A7092
:10163000072240493D4807F06BFD07F027FC78631F
:101640000AE007F023FC02467B6BD31A032B03D975
:10165000394804F049FB65E0354B1B7883F0010302
:10166000DBB2002BEDD1314807F04CFEFFF71EFD39
:1016700087ED0C0AFFF730FD87ED0B0AFFF742FDFF
:1016800087ED0A0AFFF774FE87ED090AFFF786FE69
:1016900087ED080AFFF74CFD87ED070AFFF794FE78
:1016A00087ED060AF86AFEF787FFC7E90401B86A02
:1016B000FEF782FF80468946386BFEF77DFF824643
:1016C0008B46F869FEF778FFC7E90201786AFEF7F2
:1016D00073FFC7E90001386AFEF76EFF04460D4646
:1016E000B869FEF769FF02460B46CDE90A23CDE94A
:1016F000084597ED007B8DED067B97ED027B8DED28
:10170000047BCDE902ABCDE90089D7E904230B487E
:1017100004F0EAFA064B00221A7007220549034832
:1017200007F0F6FC3837BD46BDE8B08FF440002026
:10173000880500208C050020880B0208A80B0208F1
:101740002DE9B04F9EB00CAF0346FB834B4807F02A
:10175000D9FD4B4B00221A7007224A49474807F02F
:10176000D7FC494804F006FB00237B647AE007F0CD
:101770008DFB38640AE007F089FB02463B6CD31A04
:10178000032B03D9414804F0AFFA72E03C4B1B78BD
:1017900083F00103DBB2002BEDD1384807F0B2FD36
:1017A000FFF784FC87ED0F0AFFF796FC87ED0E0A22
:1017B000FFF7A8FC87ED0D0AFFF7DAFD87ED0C0AAD
:1017C000FFF7ECFD87ED0B0AFFF7B2FC87ED0A0A85
:1017D000FFF7FAFD87ED090A294B00221A7007224C
:1017E0002849264807F094FCB86BFEF7E5FEC7E9E8
:1017F0000401786BFEF7E0FE80468946F86BFEF741
:10180000DBFE82468B46B86AFEF7D6FEC7E90201C8
:10181000386BFEF7D1FEC7E90001F86AFEF7CCFE8F
:1018200004460D46786AFEF7C7FE02460B46CDE930
:101830000A23CDE9084597ED007B8DED067B97EDFA
:10184000027B8DED047BCDE902ABCDE90089D7E9C0
:1018500004230F4804F08EFA052007F023FB7B6C6D
:1018600001337B64FB8B7A6C9A4280DB094804F07D
:101870003BFA4837BD46BDE8B08F00BFF4400020BA
:10188000880500208C050020380C0208880B02080F
:10189000800C0208B80C020880B582B000AF124874
:1018A00007F030FD114B00221A70082210490E4833
:1018B00007F02EFC07F0EAFA78600AE007F0E6FA93
:1018C00002467B68D31A032B03D90A4804F00CFAAA
:1018D00006E0064B1B7883F00103DBB2002BEDD151
:1018E0000837BD4680BD00BF3C410020890500206F
:1018F000A8050020BC0C02082DE9B04FA0B00EAF27
:10190000484807F0FFFC484B00221A70082247495C
:10191000444807F0FDFB07F0B9FA78640AE007F0E5
:10192000B5FA02467B6CD31A032B03D9404804F066
:10193000DBF972E03C4B1B7883F00103DBB2002B38
:10194000EDD1384807F0DEFCFFF788FD87ED100A7F
:10195000FFF79AFD87ED0F0AFFF7ACFD87ED0E0A42
:10196000FFF7BEFD87ED0D0AFFF7D0FD87ED0C0AEE
:10197000FFF7E2FD87ED0B0AFFF7F4FD87ED0A0A9A
:10198000FFF706FE87ED090A386CFEF715FEC7E97A
:101990000601F86BFEF710FE82468B46B86BFEF729
:1019A0000BFEC7E90401786BFEF706FEC7E90201EA
:1019B000386BFEF701FEC7E90001F86AFEF7FCFD8F
:1019C00080468946B86AFEF7F7FD04460D46786AF8
:1019D000FEF7F2FD02460B46CDE90C23CDE90A45A0
:1019E000CDE9088997ED007B8DED067B97ED027BB5
:1019F0008DED047B97ED047B8DED027BCDE900AB93
:101A0000D7E906230B4804F06FF9074B00221A7040
:101A100008220649034807F07BFB4837BD46BDE86E
:101A2000B08F00BF3C41002089050020A8050020A0
:101A3000BC0C0208DC0C02082DE9B04FA2B00EAFBE
:101A40000346FB84524807F05DFC524B00221A709B
:101A5000082251494E4807F05BFB504804F08AF9D0
:101A60000023FB6487E007F011FAB8640AE007F08E
:101A70000DFA0246BB6CD31A032B03D9484804F075
:101A800033F980E0434B1B7883F00103DBB2002B7A
:101A9000EDD13F4807F036FCFFF7E0FC87ED110A77
:101AA000FFF7F2FC87ED100AFFF704FD87ED0F0A40
:101AB000FFF716FD87ED0E0AFFF728FD87ED0D0AEB
:101AC000FFF73AFD87ED0C0AFFF74CFD87ED0B0A97
:101AD000FFF75EFD87ED0A0A2E4B00221A700822DE
:101AE0002D492B4807F014FB786CFEF765FDC7E91C
:101AF0000601386CFEF760FD82468B46F86BFEF7F8
:101B00005BFDC7E90401B86BFEF756FDC7E90201AA
:101B1000786BFEF751FDC7E90001386BFEF74CFD0D
:101B200080468946F86AFEF747FD04460D46B86AC6
:101B3000FEF742FD02460B46CDE90C23CDE90A45EE
:101B4000CDE9088997ED007B8DED067B97ED027B53
:101B50008DED047B97ED047B8DED027BCDE900AB31
:101B6000D7E906230F4804F005F9052007F09AF994
:101B7000FB6C0133FB64FB8CFA6C9A42FFF673AF8B
:101B8000094804F0B1F85037BD46BDE8B08F00BF3A
:101B90003C41002089050020A8050020940D020882
:101BA000BC0C0208EC0D0208B80C020890B482B01C
:101BB00000AF0446084611461A462346FB71034609
:101BC000BB800B467B8013463B80334B1B68BA8837
:101BD0003249A1FB0212920892B29A802E4B1B68E6
:101BE0007A882E49A1FB0212920892B2DA802A4B1F
:101BF0001B683A882949A1FB0212920892B21A8105
:101C0000254B1B683A8A2549A1FB0212920892B221
:101C10005A81214B1B68FA795A70FB79022B24D028
:101C2000022B2FDC002B02D0012B11D02AE01A4B03
:101C30001B6800221A701A4B1B6800221A64164B8C
:101C40001B6800229A70144B1B680022DA701EE099
:101C5000114B1B6801221A700F4B1B6803229A70EC
:101C60000D4B1B680022DA7011E00B4B1B68012240
:101C70001A70094B1B6803229A70074B1B680222DB
:101C8000DA7004E0044B1B6800221A7000BF00BF2A
:101C90000837BD4690BC7047D4050020CDCCCCCCD5
:101CA0001C45002080B500AF954B1B681B78072BA7
:101CB00000F21F8101A252F823F000BFFD1E0008B0
:101CC000DD1C00081F1D00086F1D0008DF1D000837
:101CD000371E0008851E0008D51E0008884B1B68AB
:101CE0009B78002B16D0864B1B689B88002B11D04D
:101CF000834B1B689A88834B1A80814B1B689A78A8
:101D0000814B1A707E4B1B6802221A70012000F072
:101D10001DF906E17A4B1B6800221A7001E1794B2C
:101D20001B88013B9AB2774B1A80764B1B88002B9D
:101D300040F0EC80002000F009F9734B1B78013B68
:101D4000DAB2714B1A706E4B1B68DB88002B09D01E
:101D50006B4B1B6803221A70694B1B68DA88694B4E
:101D60001A80D3E0664B1B6800221A70CEE0654BE8
:101D70001B88013B9AB2634B1A80624B1B88002B75
:101D800040F0C680604B1B78002B1BD1002000F078
:101D9000DDF85B4B1B685B78012B09D1584B1B6846
:101DA00007221A70564B1B685A89564B1A80AFE0AF
:101DB000534B1B6804221A70514B1B681A89514BF4
:101DC0001A80A5E04E4B1B6802221A704C4B1B6810
:101DD000DA884C4B1A80012000F0B8F898E0494BA3
:101DE0001B88013B9AB2474B1A80464B1B88002B3D
:101DF00040F09080424B1B68DB78002B16D0404BA4
:101E00001B689B88002B11D03D4B1B689A883D4B6B
:101E10001A803B4B1B68DA783B4B1A70384B1B68B7
:101E200005221A70012000F091F873E0344B1B6812
:101E300000221A706EE0334B1B88013B9AB2314B83
:101E40001A80304B1B88002B66D1002000F07EF8F2
:101E50002D4B1B78013BDAB22B4B1A70284B1B68B9
:101E6000DB88002B09D0264B1B6806221A70244BF6
:101E70001B68DA88234B1A804EE0214B1B68002236
:101E80001A7049E01F4B1B88013B9AB21D4B1A8008
:101E90001C4B1B88002B41D11B4B1B78002B0CD1FA
:101EA000002000F053F8164B1B6807221A70144BE1
:101EB0001B685A89134B1A8030E0114B1B680522AE
:101EC0001A700F4B1B68DA880E4B1A80012000F045
:101ED0003DF823E00B4B1B88013B9AB2094B1A805B
:101EE000084B1B88002B1BD1054B1B6801221A7065
:101EF00016E0034B1B6800221A7012E000BF10E0CE
:101F0000D4050020D8050020DA05002000BF08E035
:101F100000BF06E000BF04E000BF02E000BF00E039
:101F200000BF00BF80BD00BF80B400AF054B0022E2
:101F30001A70054B034A1A6000BFBD465DF8047B6A
:101F4000704700BFC8050020D405002080B483B0CE
:101F500000AF0346FB71FB79002B04D0074B1B68D5
:101F60007D221A6403E0054B1B6800221A6400BF3F
:101F70000C37BD465DF8047B704700BF1C45002050
:101F800080B582B000AF0346FB71064AFB7913703F
:101F9000FB791946044803F0A7FE00BF0837BD4689
:101FA00080BD00BF09000020340E020880B500AFDC
:101FB00002F096F901F060FDFFF7B6FF0B4B00222F
:101FC0001A710A4B00221A60084B00229A60074BD4
:101FD00001221A730020FFF7D3FF054B01221A706C
:101FE000044B024A1A6000BF80BD00BFE00500201C
:101FF000DB050020F005002090B583B000AF02F0B3
:10200000A5F90346002B50D03F4B1C6803F0A0FFFE
:10201000034623607A1DBB1D1146184602F05CFA88
:10202000BB79013B082B38D801A252F823F000BF3E
:10203000552000085B200008652000086B20000880
:10204000752000087B2000088120000887200008F8
:10205000952000080223FB7120E00323FB7102F0AE
:102060006FFA1BE00423FB7118E00523FB7102F0FB
:102070009BFA13E00623FB7110E00723FB710DE0D0
:102080000823FB710AE00923FB7102F0A7FA02F0B2
:1020900071FA03E00A23FB7100E000BFFB791846E8
:1020A00000F064F9194AFB791370174B1B681B6821
:1020B000002B14D003F04CFF0246134B1B681B6827
:1020C000D21A134B1B689A4209D30F4B1B6800228C
:1020D0001A60012000F04AF90C4B01221A7001F03D
:1020E00063FEFFF7DFFD0B4B1B78002B07D0094B7E
:1020F00000221A70054B1B78184600F037F900BF14
:102100000C37BD4690BD00BFF0050020DB05002068
:102110000C000020DC05002080B58CB002AF142339
:102120000093184B00220021012001F083FC0B20BA
:1021300005F000FD0346381D134A20211AF020FF48
:1021400078627B6ADBB23A1D0093134600220121BC
:10215000002001F06FFC381D0C4B00930C4B0D4A16
:1021600020211AF00DFF78627B6ADBB23A1D0093E2
:10217000134600220321002001F05CFC00BF283739
:10218000BD4680BD480E0208600E02085F0C0020AC
:10219000690C0020700E020880B582B002AF1423D3
:1021A0000093084B00220021012001F043FC14237E
:1021B0000093054B00220121002001F03BFC00BFF1
:1021C000BD4680BD780E0208900E020880B582B030
:1021D00002AF14230093084B00220021012001F0DC
:1021E00029FC14230093054B00220121002001F05B
:1021F00021FC00BFBD4680BD780E0208A80E020873
:1022000080B582B002AF14230093084B0022002156
:10221000012001F00FFC14230093054B0022012143
:10222000002001F007FC00BFBD4680BD780E02080B
:10223000C00E020880B582B002AF14230093084B91
:1022400000220021012001F0F5FB14230093054B2F
:1022500000220121002001F0EDFB00BFBD4680BD42
:10226000780E0208D80E020880B582B002AF14239F
:102270000093084B00220021012001F0DBFB142316
:102280000093054B00220121002001F0D3FB00BF89
:10229000BD4680BD780E0208F00E020880B582B0FF
:1022A00002AF14230093084B00220021012001F00B
:1022B000C1FB14230093054B00220121002001F0F3
:1022C000B9FB00BFBD4680BD780E0208080F0208AA
:1022D00080B582B002AF14230093084B0022002186
:1022E000012001F0A7FB14230093054B00220121DC
:1022F000002001F09FFB00BFBD4680BD780E0208A4
:10230000200F020880B582B002AF14230093084B5F
:1023100000220021012001F08DFB14230093054BC6
:1023200000220121002001F085FB00BFBD4680BDD9
:10233000780E0208380F020880B582B002AF14236D
:102340000093084B00220021012001F073FB1423AD
:102350000093054B00220121002001F06BFB00BF20
:10236000BD4680BD780E0208500F020880B582B0CD
:1023700000AF0346FB71FB79002B07D0FB790A2BDA
:1023800004D8FB79034A52F82330984700BF083736
:10239000BD4680BD1000002080B400AF034B012279
:1023A0001A7000BFBD465DF8047B7047DC05002055
:1023B00080B400AF034B1B781846BD465DF8047B24
:1023C000704700BFB40A002080B483B000AF03465A
:1023D000FB71044AFB79137000BF0C37BD465DF8F2
:1023E000047B7047B40A002080B584B002AF034676
:1023F0003960FB801346BB80BB88FA8801933B6839
:1024000000930223A021064808F026FE0346002B75
:1024100002D0044803F068FC00BF0837BD4680BD09
:10242000A4420020680F020880B500AF044B0122CF
:102430001A70022203497E20FFF7D6FF00BF80BD3D
:10244000AE0A00209408002080B500AF044B0122A2
:102450001A70042203497A20FFF7C6FF00BF80BD2F
:10246000AF0A00209C08002080B500AF044B012279
:102470001A70022203497520FFF7B6FF00BF80BD26
:10248000B00A0020A808002080B500AF064B00224B
:102490001A80064B00221A80FFF7C6FF102104485D
:1024A00003F022FC00BF80BD880800208A080020BD
:1024B000CC0F020880B483B000AF144B1A88144BC1
:1024C0001B88D31A9BB2FB80FA88124B1A80B7F98B
:1024D0000630002B01D1012311E0B7F90630002BA3
:1024E00003DAFB8820339BB2FB80B7F906300A4A37
:1024F0001288934202DDFA88074B1A80002318469F
:102500000C37BD465DF8047B704700BF8A08002089
:1025100088080020920800209008002080B483B032
:1025200000AF0E4B1A880E4B1B88D31A9BB2FB8050
:10253000B7F90630002B03DAFB8820339BB2FB800F
:10254000B7F906301F2B01D1012300E00023184604
:102550000C37BD465DF8047B704700BF8A08002039
:102560008808002080B588B002AF03463960FB8040
:102570001346BB80BB88FB820023BB82FB88DBB297
:1025800003F07F03BB74BB7CC3F1FF2303F57F0320
:102590008033FB746BE003F09FFCF8600AE0F8689E
:1025A00003F0ACFC03460A2B04D9354803F09CFB2E
:1025B000012360E0334B1B78002BF0D10AE0F86870
:1025C00003F09CFC0346032B04D92F4803F08CFB3B
:1025D000012350E02D4808F02FFE0346202BEED1BA
:1025E000FB7C9BB2FA8A9A421DD8264B01221A70B4
:1025F000FA88BB8A134499B2BB8A3A681344FA8AB0
:102600000192009302230A46A021204808F090FC82
:102610000346002B04D01E4803F066FB01232AE08A
:10262000FB8ABB821DE0174B01221A70FA88BB8A15
:10263000134499B2BB8A3A681344FA7C92B201926D
:10264000009302230A46A021104808F071FC0346BB
:10265000002B04D00F4803F047FB01230BE0FB7C69
:10266000BB82FA8ABB8AD31AFB828023FB74FB8A63
:10267000002B90D1002318461837BD4680BD00BFFF
:10268000E40F0208B40A0020840F0208A4420020CC
:10269000141002084010020880B586B000AF03464F
:1026A0003960FB8013467B7103F016FC386114E03F
:1026B000386903F023FCF860FB680A2B05D9304821
:1026C00003F012FB4FF0FF3355E02E4B1B68FA6806
:1026D0009A4202D92B4AFB681360FFF71FFF03469B
:1026E000002BE5D1284B1B881946284A0B469B0036
:1026F0000B449B001344FA881A80234B1B8819460D
:10270000224A0B469B000B449B00134402337A7908
:102710001A7000237B6114E03B685A1C3A601A4A25
:10272000128811461878194A0B469B000B449B00EF
:102730001A447B691344033302461A707B690133E0
:102740007B617B797A699A42E6DB0F4B1B88013308
:102750009AB20D4B1A800C4B1B881F2B02D90A4BC7
:1027600000221A800A4808F067FD0346202B01D199
:1027700000F010F8002318461837BD4680BD00BF92
:10278000701002088C0800208A080020080600202B
:10279000A442002080B582B000AFFFF78BFE034655
:1027A000002B40D1234B1B78002B3ED1224B1B88A2
:1027B0001946224A0B469B000B449B0013441B887E
:1027C000FB801D4B1B8819461C4A0B469B000B4483
:1027D0009B00134402331B787B71174B1B881A46EE
:1027E00013469B0013449B00144A134403333B607D
:1027F000114B1B8801339AB20F4B1A800E4B1B886A
:102800001F2B02D90C4B00221A807B799AB2FB88CD
:1028100039681846FFF7A6FE0346002B06D0084885
:1028200003F062FA02E000BF00E000BF0837BD46D7
:1028300080BD00BFB40A00208808002008060020E0
:102840009810020880B582B000AF0346FB80BB1D24
:10285000022219467E20FFF71FFF00BF0837BD4642
:1028600080BD80B582B000AF78603B1D0422194660
:102870007A20FFF711FF00BF0837BD4680BD80B545
:1028800082B000AF0346FB80BB1D022219467520B3
:10289000FFF702FF00BF0837BD4680BD80B582B09C
:1028A00000AF7860102279681420FFF7F5FE00BFB2
:1028B0000837BD4680BD80B582B000AF78603B1D53
:1028C000042219462420FFF7E7FE00BF0837BD4663
:1028D00080BD000080B483B000AF0346FB80044A93
:1028E000FB88138000BF0C37BD465DF8047B704742
:1028F000A808002080B582B000AF134B80221A8058
:10290000114B1B881846FFF79DFF00237B607868FA
:1029100005F000F97868FFF7A4FF00237B807B882F
:102920001846FFF7D7FF7B881846FFF7A8FF074B2D
:1029300000221A70012205497920FFF7ADFE00BF81
:102940000837BD4680BD00BF94080020AA080020BB
:1029500080B500AF044B01221A70102203491420E5
:10296000FFF742FD00BF80BDBE0A00203C000020F2
:1029700080B500AF044B01221A70042203492420C1
:10298000FFF732FD00BF80BDBF0A00200406002013
:1029900080B487B000AFF860B9607A60FB68DB4351
:1029A000FB601DE0BB685A1CBA601B781A46FB68C6
:1029B0005340FB6000237B610FE0FB6803F00103E1
:1029C000002B04D0FB685A080C4B534001E0FB6815
:1029D0005B08FB607B6901337B617B69072BECDD66
:1029E0007B685A1E7A60002BDCD1FB68DB431846FB
:1029F0001C37BD465DF8047B704700BF783BF6820C
:102A000080B500AF0C2205490020FFF7C1FF034647
:102A1000034A1360024B1B68184680BDF405002072
:102A20009808002080B582B000AF1A4B1B88DB43AA
:102A3000FB80FB88B3F5007F28BF4FF400739AB288
:102A4000154B1A80144B1B88002B03D1134803F03D
:102A50004BF91CE00F4B1B880F4A128812B2104929
:102A60001846FFF7C1FC0B4B1B881A460A4B1B8804
:102A700013443B603B684FF6FE72934203D9054B0B
:102A800080221A8003E03B689AB2024B1A80083712
:102A9000BD4680BDAC0A00204E0000201411020883
:102AA000AC08002080B582B000AF1C4B1A881C4BCC
:102AB0001B88D31AFB80FB88B3F5007F28BF4FF437
:102AC00000739AB2174B1A80164B1B88002B03D148
:102AD000154803F009F91DE0114B1B88114A1288B3
:102AE00012B212491846FFF77FFC0D4B1B881A469D
:102AF0000C4B1B8813443B60084B1B881A463B68F1
:102B0000934203D30A4B01221A7003E03B689AB246
:102B1000034B1A800837BD4680BD00BF94080020D3
:102B2000AC0A00204E0000204C110208AC08002026
:102B3000BD0A00202DE9F04186B006AF874B1B7817
:102B4000002B06D0854B00221A70854B01221A708B
:102B500000E1844B1B78002B09D0824B00221A70B5
:102B6000814B1B881946814803F0BEF8F2E0804B88
:102B70001B78002B0ED07E4B00221A707D4B1B68F9
:102B8000184604F0C7FF7B4B1B6819467A4803F0D0
:102B9000ABF8DFE0794B1B78002B0ED0774B00228F
:102BA0001A70774B1B881846FFF794FE744B1B88EE
:102BB0001946744803F098F8CCE0734B1B78002B4F
:102BC00009D0714B00221A70704B1B68194670486F
:102BD00003F08AF8BEE06F4B1B78002B09D06D4BD9
:102BE00000221A706C4B1B6819466C4803F07CF885
:102BF000B0E06B4B1B78002B03D0694B00221A709E
:102C0000A8E0684B1B78002B3AD0664B00221A7064
:102C1000FFF7F6FE644BDA68644B1B689A4206D0F5
:102C2000634803F061F8634B01221A7005E06248C3
:102C300003F05AF85F4B00221A705B4BB3F9003077
:102C40001E46594BB3F902309846574B5B681846FD
:102C5000FDF7B2FC04460D46534B9B681846FDF742
:102C6000ABFC02460B465049C9680491CDE90223EA
:102C7000CDE9004542463146504803F035F869E059
:102C80004F4B1B78002B07D04D4B00221A704D493B
:102C90004D4803F029F85DE04C4B1B78002B09D020
:102CA0004A4B00221A704A4B1B681946494803F0E8
:102CB0001BF84FE0484B1B78002B03D0464B0022FB
:102CC0001A7047E0454B1B78002B03D0434B002282
:102CD0001A703FE0424B1B78002B3BD0414B1B78D6
:102CE000002B06D03E4B00221A703F4B01221A7077
:102CF00030E03E4B1B78002B29D03C4B00221A7051
:102D00003B4B1B78002B0DD1174B1B88802B09D117
:102D1000334B00221A70344B00221A70354802F0EF
:102D2000E3FF17E0324B1B78012B0AD10E4B1B88B7
:102D3000802B06D00C4B1A882F4B1A80FFF772FE9F
:102D400008E02D4B80221A80FFF7ACFE02E0264BF4
:102D500001221A70BD46BDE8F08100BFB90A00200B
:102D6000B60A0020AE0A002094080020B411020820
:102D7000AF0A00209C080020CC110208B00A0020F5
:102D8000A8080020E4110208B10A0020A0080020D1
:102D9000F8110208B20A0020A40800200C12020850
:102DA000B30A0020BA0A0020F40500209808002089
:102DB000241202084C000020441202086412020887
:102DC000BE0A00203C000020B0120208BF0A00200A
:102DD00004060020C8120208B70A0020B80A002022
:102DE000BB0A0020BD0A0020B50A0020BC0A002052
:102DF000AA080020DC120208AC0A002080B582B0CC
:102E000000AF0346FB71FB791A464FF4806103481B
:102E100007F0DEFD00BF0837BD4680BD000402405C
:102E200080B582B000AF03460A46FB711346BB7102
:102E3000FB79013B072B4CD801A252F823F000BFCD
:102E4000612E00086F2E00087D2E00088B2E0008D2
:102E5000992E0008A72E0008B52E0008C32E0008E2
:102E6000BB791A4601211D4807F0B2FD31E0BB795C
:102E70001A460221194807F0ABFD2AE0BB791A4631
:102E80000421164807F0A4FD23E0BB791A46082167
:102E9000124807F09DFD1CE0BB791A4620210F481F
:102EA00007F096FD15E0BB791A4640210B4807F064
:102EB0008FFD0EE0BB791A468021084807F088FD97
:102EC00007E0BB791A464FF48071044807F080FD93
:102ED00000BF00BF0837BD4680BD00BF00180240DC
:102EE00080B500AF01220121024807F071FD00BF4B
:102EF00080BD00BF0018024080B500AF0022012154
:102F0000024807F065FD00BF80BD00BF0018024009
:102F100080B500AF01220221024807F059FD00BF31
:102F200080BD00BF0018024080B500AF0022022122
:102F3000024807F04DFD00BF80BD00BF00180240F1
:102F400080B500AF01220421024807F041FD00BF17
:102F500080BD00BF0018024080B500AF00220421F0
:102F6000024807F035FD00BF80BD00BF00180240D9
:102F700080B500AF01220821024807F029FD00BFFB
:102F800080BD00BF0018024080B500AF00220821BC
:102F9000024807F01DFD00BF80BD00BF00180240C1
:102FA00080B500AF01222021024807F011FD00BFCB
:102FB00080BD00BF0018024080B500AF0022202174
:102FC000024807F005FD00BF80BD00BF00180240A9
:102FD00080B500AF01224021024807F0F9FC00BF94
:102FE00080BD00BF0018024080B500AF0022402124
:102FF000024807F0EDFC00BF80BD00BF0018024092
:1030000080B500AF01228021024807F0E1FC00BF3B
:1030100080BD00BF0018024080B500AF00228021B3
:10302000024807F0D5FC00BF80BD00BF0018024079
:1030300080B582B000AF03460A46FB711346BB71F0
:10304000FB79013B032B2BD801A252F823F000BFE0
:1030500061300008713000088130000891300008AC
:10306000BB791A464FF400410F4807F0B1FC17E056
:10307000BB791A464FF480410B4807F0A9FC0FE0DA
:10308000BB791A464FF48061074807F0A1FC07E0BE
:10309000BB791A464FF40071034807F099FC00BF52
:1030A00000BF0837BD4680BD000C024080B582B02D
:1030B00000AF03460A46FB711346BB71FB79032B35
:1030C00016D0032B1CDC012B02D0022B08D017E0FA
:1030D000BB791A464FF400610B4807F079FC0FE00A
:1030E000BB791A464FF48051074807F071FC07E09E
:1030F000BB791A464FF40051034807F069FC00BF42
:1031000000BF0837BD4680BD000C024080B582B0CC
:1031100000AF0346FB71FB791A462021034807F0F4
:1031200057FC00BF0837BD4680BD00BF00100240FD
:1031300080B500AF01222021024807F049FC00BF02
:1031400080BD00BF0010024080B500AF00222021EA
:10315000024807F03DFC00BF80BD00BF00100240E8
:1031600080B582B000AF0346FB71FB791A464FF47D
:103170008041034807F02CFC00BF0837BD4680BDE6
:103180000018024080B582B000AF0346FB71FB79A6
:103190001A464FF48061034807F01AFC00BF083755
:1031A000BD4680BD0000024080B582B000AF03463E
:1031B000FB71FB791A464021034807F009FC00BF68
:1031C0000837BD4680BD00BF0010024080B582B008
:1031D00000AF0346FB71FB791A464FF400610348C8
:1031E00007F0F6FB00BF0837BD4680BD0010024067
:1031F00080B582B000AF0346FB71FB791A4680218F
:10320000034807F0E5FB00BF0837BD4680BD00BF9F
:103210000010024080B582B000AF78607B68002269
:103220000021034806F087FD00BF0837BD4680BD7A
:10323000444200200000000080B584B000AF034687
:10324000FB800023FB604FF00003BB60FB88224A39
:1032500013602FE0D7ED027A9FED207A67EE877A30
:1032600017EE900AFDF7A8F917A3D3E90023FDF79D
:1032700025FB02460B4610461946FDF7CDFC0346DA
:10328000FB60FB6800220021154806F054FDB86879
:10329000FDF792F90EA3D3E90023FDF72FF80246BC
:1032A0000B4610461946FDF7D7FC0346BB602820A5
:1032B00005F0F8FDFB88FA689A42CBD300BF00BF47
:1032C0001037BD4680BD00BF6666666666660A400A
:1032D0009A9999999999A93FC00A002000008045C0
:1032E0004442002080B582B000AF0D4B1B687B606C
:1032F0000EE07B68323B7B607B680022002109483E
:1033000006F019FD064A7B681360282005F0CAFD07
:103310007B68322BEDD800BF00BF0837BD4680BDAB
:10332000C00A00204442002080B483B000AF0346AE
:10333000FB71FB79002B05D0074B1B6840F6C412CC
:103340005A6303E0044B1B6800225A6300BF0C372A
:10335000BD465DF8047B70470046002080B582B012
:1033600000AF0346FB71FB79002B03D00120FFF770
:10337000DBFF02E00020FFF7D7FFFB79012B01D133
:10338000054B00E0054B1946054802F0ADFC00BFB7
:103390000837BD4680BD00BF401302084413020831
:1033A0004813020880B500AF0020FFF7FDFE0020A3
:1033B000FFF71EFF0020FFF72DFF0020FFF706FF9D
:1033C0000020FFF7B1FF00BF80BD000080B58AB0CC
:1033D00002AF0023BB610023FB610120FFF7E4FE85
:1033E0003B1D5149184619F0FFFD3B1D1846FCF7DF
:1033F00021FF0346BB61BB69DBB23A1D0093134654
:1034000000220021012000F015FB0023FB6102E0F7
:10341000FB690133FB61FB69444A9342F8D3012005
:10342000FFF7D4FE3B1D4249184619F0DDFD3B1D58
:103430001846FCF7FFFE0346BB61BB69DBB23A1DD1
:103440000093134600220121012000F0F3FA00232B
:10345000FB6102E0FB690133FB61FB69354A934282
:10346000F8D900F0E3F80346002B40D000F0D2F882
:1034700000224FF40061304807F0AAFA3B1D2F49A3
:10348000184619F0B1FD3B1D381D2D4A142119F0C5
:1034900077FDB861BB69DBB2013BDBB23A1D00933B
:1034A000134600220221012000F0C4FA4FF47A7082
:1034B00005F0F8FC0120FFF79BFE3B1D2149184653
:1034C00019F092FD3B1D1846FCF7B4FE0346BB61A4
:1034D000BB69DBB23A1D0093134600220321012091
:1034E00000F0A8FA4FF47A7005F0DCFC18E03B1D00
:1034F0001549184619F078FD3B1D1846FCF79AFE51
:103500000346BB61BB69DBB23A1D00931346002240
:103510000221012000F08EFA4FF4FA6005F0C2FC9F
:1035200000BF2037BD4680BD50130208809698002A
:103530005C1302087FC3C901000C02406813020833
:103540007C130208801302089013020880B588B02B
:1035500002AF00237B610020FFF74AFE3B462A4969
:10356000184619F041FD3B461846FCF763FE03463A
:103570007B617B69DBB23A4600931346002200214F
:10358000012000F057FA4FF4FA6005F08BFC0020A0
:10359000FFF71CFE3B461D49184619F025FD3B462A
:1035A0001846FCF747FE03467B617B69DBB23A466F
:1035B0000093134600220121012000F03BFA4FF452
:1035C000FA6005F06FFC0020FFF7EEFD3B46104966
:1035D000184619F009FD3B461846FCF72BFE03463A
:1035E0007B617B69DBB23A460093134600220221DD
:1035F000012000F01FFA4FF4FA6005F053FC00BF01
:103600001837BD4680BD00BFA8130208B8130208D2
:10361000C413020880B400AF034B0022DA7100BF6C
:10362000BD465DF8047B7047540C002080B400AFA9
:10363000034BDB791846BD465DF8047B704700BF3D
:10364000540C002080B483B000AF0346FB71044AE1
:10365000FB79937100BF0C37BD465DF8047B704762
:10366000540C002080B483B000AF0346FB71044AC1
:10367000FB79D37100BF0C37BD465DF8047B704702
:10368000540C002080B400AF034B1B781846BD4695
:103690005DF8047B704700BF380C002080B483B015
:1036A00000AF0346FB71044AFB79137000BF0C376F
:1036B000BD465DF8047B7047380C002080B483B0B1
:1036C00000AF144B1A88144B1B88D31A9BB2FB8093
:1036D000FA88124B1A80B7F90630002B01D101236A
:1036E00011E0B7F90630002B03DAFB8810339BB2E8
:1036F000FB80B7F906300A4A1288934202DDFA8845
:10370000074B1A80002318460C37BD465DF8047B32
:10371000704700BF2E0C00202C0C0020360C00201F
:10372000340C002080B483B000AF0E4B1A880E4BCF
:103730001B88D31A9BB2FB80B7F90630002B03DA43
:10374000FB8810339BB2FB80B7F906300F2B01D1F9
:10375000012300E0002318460C37BD465DF8047BCA
:10376000704700BF2E0C00202C0C002080B582B0CA
:1037700000AFFFF7A3FF0346002B6AD1384B1B783D
:10378000002B68D1374807F057FD0346202B03D0A4
:10379000354802F0A9FA5FE015222021334818F0DD
:1037A0008DFE334B1B881A46324B9B5CFB71304BB2
:1037B0001B881A4613465B001344DA00D21A2E4BBC
:1037C0001344FA791946294818F06AFE284B1B88D9
:1037D0001A4613465B001344DA00D21A264B1344F0
:1037E00015222021184618F069FE204B5B78512BDA
:1037F00002D11B4B01221A701D4B1B8801339AB258
:103800001B4B1A801A4B1B880F2B02D9184B002216
:103810001A80FB799BB2154A5021124807F0A8FA8A
:103820000346BB71BB79002B0FD0144B1B7883F080
:103830000103DBB2002B0FD0BB791946104802F010
:1038400053FA0E4B01221A7006E00C4B00221A703C
:1038500002E000BF00E000BF0837BD4680BD00BFEA
:10386000380C002058420020D41302083C0C0020E1
:103870002C0C00201C0C0020CC0A0020510C002035
:10388000F013020880B584B000AF78600B46FB707F
:1038900002F022FBF8600EE0F86802F02FFBB8603F
:1038A000BB680A2B42D8244B1B68BA689A4202D9DB
:1038B000214ABB681360FFF735FF0346002BEBD1AD
:1038C000FB78142B07D9FB78142219461B4802F009
:1038D0000BFA1423FB701A4B1B881A4613465B0025
:1038E0001344DA00D21A174B1344FA787968184651
:1038F00018F0D6FD124B1B881946134AFB78535417
:103900000F4B1B8801339AB20D4B1A800C4B1B884E
:103910000F2B02D90A4B00221A800C4807F08CFCAE
:103920000346202B04D1FFF721FF01E000BF00E098
:1039300000BF1037BD4680BD300C00202C1402089B
:103940002E0C0020CC0A00201C0C00205842002025
:1039500080B582B000AF45F2FE13BB803B1D022153
:103960001846FFF78FFF00BF0837BD4680BD80B502
:1039700084B000AF0346FB71FE23BB81FB79002BB3
:1039800001D04B2300E04C237B7307F10C03022191
:103990001846FFF777FF00BF1037BD4680BD000017
:1039A00080B584B000AF03460A46FB711346BB7175
:1039B000144A07F10C031268114619800233120CE5
:1039C0001A70FB79032B0BD0FB79022B06D0FB7905
:1039D000012B01D1402304E0002302E0142300E086
:1039E0005423BB73BA7BBB791344DBB2BB7307F1BF
:1039F0000C0303211846FFF745FF00BF1037BD46F3
:103A000080BD00BF7014020880B582B000AF084AC4
:103A10003B1D1268114619800233120C1A703B1DAF
:103A200003211846FFF72EFF00BF0837BD4680BDB3
:103A30007414020880B584B000AF3B600346FB718C
:103A40000B46BB7113467B710023FB73FB79002B84
:103A500001D0FFF77DFF7A79BB7911461846FFF751
:103A60009FFF3B7E19463868FFF70CFFFB7B18462B
:103A70001037BD4680BD000080B58CB002AF154B3D
:103A800000221A80144B00221A80144802F02CF9EC
:103A90000A2005F007FAFFF7B7FF0B2004F04AF8F9
:103AA0000346381D0E4A202119F06AFA78627B6AB3
:103AB000DBB23A1D00931346002200210120FFF7DC
:103AC000B9FF0020FFF753FF064B18462837BD46C5
:103AD00080BD00BF2C0C00202E0C002078140208A2
:103AE00084140208C40A002080B582B000AF0346E7
:103AF000FB71FB79002B06D001224FF4806107484F
:103B000006F066FF05E000224FF48061034806F0EE
:103B10005FFF00BF0837BD4680BD00BF0000024008
:103B200090B585B000AF0446084611461A462346B4
:103B3000FB710346BB710B46BB8013467B80FB7950
:103B40000A2B40F09B800023FB6092E0BB79022BA4
:103B500031D0022B00F38780002B02D0012B15D02F
:103B600081E09049FA681346DB0013449B000B4444
:103B7000023301221A708B49FA681346DB001344A2
:103B80009B000B44033300221A706FE08549FA68EA
:103B90001346DB0013449B000B44013301221A70CF
:103BA0008049FA681346DB0013449B000B4403333F
:103BB00000221A705AE07B49FA681346DB0013446E
:103BC0009B000B4410331B78002B4ED07549FA68CC
:103BD0001346DB0013449B000B4403331B7883F034
:103BE0000103DBB2002B40D06E49FA681346DB00BC
:103BF00013449B000B44033301221A706949FA688D
:103C00001346DB0013449B000B440C33BA881A8024
:103C10006449FA681346DB0013449B000B440E33DF
:103C20007A881A8002F094F901465E48FA681346D1
:103C3000DB0013449B000344043319605949FA68BC
:103C40001346DB0013449B000B44083300221A6028
:103C50005449FA681346DB0013449B000B441033AD
:103C600001221A7001E000BF00E000BFFB680133D1
:103C7000FB60FB68092B7FF669AF8FE0BB79022BF5
:103C800031D0022B00F38780002B02D0012B15D0FE
:103C900081E0FA7943491346DB0013449B000B444F
:103CA000023301221A70FA793E491346DB001344AD
:103CB0009B000B44033300221A706FE0FA793949F4
:103CC0001346DB0013449B000B44013301221A709E
:103CD000FA7934491346DB0013449B000B44033349
:103CE00000221A705AE0FA792E491346DB00134479
:103CF0009B000B4410331B78002B4ED0FA792949D6
:103D00001346DB0013449B000B4403331B7883F002
:103D10000103DBB2002B40D0FA7922491346DB00C5
:103D200013449B000B44033301221A70FA791D4996
:103D30001346DB0013449B000B440C33BA881A80F3
:103D4000FA7918491346DB0013449B000B440E33E9
:103D50007A881A80FC7902F0FBF802461149234662
:103D6000DB0023449B000B4404331A60FA790D49AD
:103D70001346DB0013449B000B44083300221A60F7
:103D8000FA7908491346DB0013449B000B441033B7
:103D900001221A7001E000BF00E000BF00BF14372D
:103DA000BD4690BD5000002080B582B000AF00231A
:103DB0007B604EE09B497A681346DB0013449B000E
:103DC0000B4402331B78002B40D096497A68134687
:103DD000DB0013449B000B44023300221A7091490C
:103DE0007A681346DB0013449B000B4414331B68B2
:103DF000002B16D08B497A681346DB0013449B00D6
:103E00000B441433186887497A681346DB0013445F
:103E10009B000B4418331B880022194606F0D8FD7E
:103E200014E080497A681346DB0013449B000B447E
:103E300020331B68002B09D07A497A681346DB00CF
:103E400013449B000B4420331B6898477B68013365
:103E50007B607B68092BADD900237B604EE0714904
:103E60007A681346DB0013449B000B4401331B7834
:103E7000002B40D06B497A681346DB0013449B004B
:103E80000B44013300221A7066497A681346DB003E
:103E900013449B000B4414331B68002B16D061495C
:103EA0007A681346DB0013449B000B4414331868F4
:103EB0005C497A681346DB0013449B000B441833BB
:103EC0001B880122194606F083FD14E055497A68E3
:103ED0001346DB0013449B000B4420331B68002B6C
:103EE00009D050497A681346DB0013449B000B4409
:103EF0001C331B6898477B6801337B607B68092B08
:103F0000ADD900237B60FDE046497A681346DB00AB
:103F100013449B000B4410331B78002B00F0EA8005
:103F200040497A681346DB0013449B000B4403337B
:103F30001B78002B00F0DE803A497A681346DB00DC
:103F400013449B000B4410331B78012B02D0022B2F
:103F50006AD0D4E001F0FCFF014632487A6813468B
:103F6000DB0013449B00034404331B68C91A2D482B
:103F70007A681346DB0013449B0003440C331B8810
:103F80009942C0F0B98001F0E3FF014625487A6804
:103F90001346DB0013449B00034408331960214996
:103FA0007A681346DB0013449B000B441033022253
:103FB0001A701C497A681346DB0013449B000B44BB
:103FC00014331B68002B16D016497A681346DB00A1
:103FD00013449B000B441433186812497A68134643
:103FE000DB0013449B000B4418331B880022194646
:103FF00006F0EEFC80E00B497A681346DB001344C0
:104000009B000B4420331B68002B75D005497A6850
:104010001346DB0013449B000B4420331B68984776
:104020006AE000BF5000002001F092FF01463A48CC
:104030007A681346DB0013449B00034408331B6873
:10404000C91A35487A681346DB0013449B000344C1
:104050000E331B88994251D301F07AFF01462E4856
:104060007A681346DB0013449B0003440433196051
:1040700029497A681346DB0013449B000B44103334
:1040800001221A7024497A681346DB0013449B000E
:104090000B4414331B68002B16D01F497A68134653
:1040A000DB0013449B000B44143318681A497A68E8
:1040B0001346DB0013449B000B4418331B8801227A
:1040C000194606F085FC19E013497A681346DB00AF
:1040D00013449B000B4420331B68002B0ED00E4969
:1040E0007A681346DB0013449B000B441C331B68A7
:1040F000984703E000BF02E000BF00E000BF7B681C
:1041000001337B607B68092B7FF6FEAE00BF00BFEA
:104110000837BD4680BD00BF5000002080B400AF0E
:104120000D4B00221A710C4B00229A700A4B4FF46F
:1041300000621A84084B00225A71074B0022DA7180
:10414000054B00229A71044B00221A7200BFBD4633
:104150005DF8047B704700BF540C002080B586B02A
:1041600002AF78600B467B807B884FF0FF32009275
:104170007A687021084806F007FD0346FB73FB7B55
:10418000002B04D0FB7B1946044801F0ADFD00BFB5
:104190001037BD4680BD00BF584200208C14020875
:1041A00080B582B000AF0421064806F0F9FB034653
:1041B000002B0CBF01230023FB71FB791846083745
:1041C000BD4680BD0010024080B584B002AF002320
:1041D000BB71BA1D4FF0FF330093012370211148CA
:1041E00006F0D2FC0346FB71FB79002B10D10123B2
:1041F0000D4A70210B4806F02BFE0346FB71FB793C
:10420000002B0AD0FB791946084801F06DFD04E047
:10421000FB791946064801F067FD00BF0837BD4627
:1042200080BD00BF584200205E0C0020A814020888
:10423000C414020880B582B000AF40233B71102344
:104240007B713B1D02211846FFF788FF01233B715C
:1042500089237B713B1D02211846FFF77FFF052351
:104260003B71FF237B713B1D02211846FFF776FF50
:1042700030233B7133237B713B1D02211846FFF72E
:104280006DFF35233B7130237B713B1D02211846A6
:10429000FFF764FF43233B71C1237B713B1D022168
:1042A0001846FFF75BFF02233B710A237B713B1D1E
:1042B00002211846FFF752FF03233B7101237B7154
:1042C0003B1D02211846FFF749FF02210348FFF773
:1042D00045FF00BF0837BD4680BD00BFC4010020B8
:1042E00080B500AF054801F0FFFCFFF7A3FF044BCA
:1042F000044A1A60034B184680BD00BFE014020850
:10430000840C0020780C002080B485B000AF0346F8
:10431000FB710123FB600CE00B4AFB6813441B7824
:10432000FA799A4202D1FB68DBB206E0FB680133FE
:10433000FB60FB68092BEFD9002318461437BD46F4
:104340005DF8047B704700BFB801002080B584B0E1
:1043500000AF0023FB735A4B1B78002B01D0FB7B73
:10436000AAE0584B1B68BB60574B1B7A002B09D047
:10437000554B00221A72FFF727FF01F0ADFD0346EF
:10438000524A1360504B1B79002B00F084804E4B37
:1043900000221A714C4B9B7A03F04003002B34D15E
:1043A000494B9B7A03F03F03DAB2BB689A70BB6853
:1043B0009B783E2B20D1BB689B68002B05D101F078
:1043C000C7FD0246BB689A6065E001F0C1FD024688
:1043D000BB689B68D31A44F61F6293425BD9BB68E3
:1043E00000229A60BB6803221A70354B01221A70B2
:1043F000374801F079FC4EE001F0AAFD0246BB68A7
:104400005A60BB6800229A6045E02F4B9B7A03F00C
:104410003F03FB71BB685B68002B3CD0BB689B789B
:10442000FA799A4237D101F093FD0246BB685B6886
:10443000D31AB3F57A6F03D3BB6801221A700FE069
:1044400001F086FD0246BB685B68D31AB3F5FA6FCC
:1044500003D3BB6802221A7002E0BB6800221A7004
:10446000BB689B781846FFF74FFF03461A46BB68A8
:104470005A70BB6800225A60114B1B7883F001030D
:10448000DBB2002B07D00123FB73BB685B781946B6
:10449000104801F029FCFFF783FE0346002B0AD0E9
:1044A00001F01AFD0246094B1B68D31AB3F5FA7FD7
:1044B00001D3FFF789FEFB7B18461037BD4680BD50
:1044C000880C0020840C0020540C00208C0C002050
:1044D000F01402081C15020880B485B000AF7860A3
:1044E0003960084B1B68FB60FB685A787B681A7060
:1044F000FB681A783B681A7000BF1437BD465DF838
:10450000047B7047840C002080B582B000AF034666
:10451000FB71FB79002B06D001224FF48041074844
:1045200006F056FA05E000224FF48041034806F0F9
:104530004FFA00BF0837BD4680BD00BF00180240DB
:1045400080B582B000AF3B233B71094B1B7823F051
:104550001003DAB2064B1A70054B1B787B713B1DBA
:1045600002211846FFF7FAFD00BF0837BD4680BD9F
:10457000C601002080B582B000AF3B233B71094BE0
:104580001B7843F01003DAB2064B1A70054B1B7808
:104590007B713B1D02211846FFF7E0FD00BF083785
:1045A000BD4680BDC601002080B582B000AF3B2370
:1045B0003B71094B1B7823F02003DAB2064B1A70CB
:1045C000054B1B787B713B1D02211846FFF7C6FD8A
:1045D00000BF0837BD4680BDC601002080B582B04F
:1045E00000AF3B233B71094B1B7843F02003DAB249
:1045F000064B1A70054B1B787B713B1D0221184638
:10460000FFF7ACFD00BF0837BD4680BDC6010020E6
:1046100080B483B000AF0346FB71FB792F2B02D926
:10462000FB79392B0BD9FB79402B02D9FB795A2B1B
:1046300005D9FB79602B05D9FB797A2B02D84FF08D
:10464000FF3300E0002318460C37BD465DF8047BBD
:104650007047000080B584B000AF78600023BB6075
:104660007B68002B01D1002323E00023FB811AE0AB
:10467000FA891346DB009B1A9B00104A13447968A1
:104680001846FBF7CDFD0346002B09D1FA891346E6
:10469000DB009B1A9B00094A1344BB60BB6808E01F
:1046A000FB890133FB81064B1B88FA899A42DFD9CB
:1046B000002318461037BD4680BD00BF900C002077
:1046C000901A002080B586B000AFF860B9607A60BB
:1046D00000237B617B683B613B6900221A60FB68B9
:1046E0001B68002B01D103231CE0FB681B681846E4
:1046F000FFF7B0FF78617B69002B01D1032311E044
:104700007B695B69BA689A4201DA04230AE07B6933
:104710009B69BA689A4201DD052303E07B687A69E8
:104720001A60002318461837BD4680BD80B584B096
:1047300000AF786039600023BB600223FB737B68A5
:10474000002B39DD07F108031A4679683868FFF74E
:10475000B9FF0346FB73FB7B002B10D1BB681B69C1
:104760003968786898470346002B26D03B681B6859
:104770001946144801F0B8FA0623FB731DE0FB7BD1
:10478000052B11D0052B13DC032B02D0042B07D0F3
:104790000EE03B681B6819460B4801F0A5FA0CE0D7
:1047A0000A4801F0A1FA08E0094801F09DFA04E086
:1047B000084801F099FA00E000BFFB7B184610376B
:1047C000BD4680BD2C1502084C150208681502086C
:1047D00084150208A415020880B584B000AF786083
:1047E0000023FB607B68BB60504B00221A608CE0AA
:1047F000BB681B78222B15D1BB680133BB600DE071
:10480000BB685A1CBA60494A1268494951F82210DB
:10481000FA68501CF8600A441B781370BB681B7858
:10482000222BEDD1BB681B781846FFF7F1FE03463B
:10483000002B0CD03D4B1B683D4A52F82320FB68EF
:10484000591CF9601344BA6812781A7043E0BB68C7
:104850001B782E2B1FD0BB681B785F2B1BD0BB682F
:104860001B782D2B17D0BB681B782F2B13D0BB6860
:104870001B782B2B0FD0BB681B783D2B0BD0BB6854
:104880001B783E2B07D0BB681B783A2B03D0BB6844
:104890001B783F2B0CD1254B1B68254A52F823204F
:1048A000FB68591CF9601344BA6812781A7012E058
:1048B000FB68002B0FD01D4B1B681D4A52F82320AC
:1048C000FB68134400221A700023FB60174B1B681F
:1048D0000133164A1360BB680133BB60BB681B78A9
:1048E000002B12D1FB68002B0FD0104B1B68104A15
:1048F00052F82320FB68134400221A700023FB6047
:104900000A4B1B680133094A1360BB681B78002BF4
:104910007FF46EAF054B1B6805491846FFF706FF8D
:10492000034618461037BD4680BD00BFD41C00208A
:10493000941C002080B584B000AFF860B9607A6044
:104940003B60214B1B887F2B38D81F4B1B881A4696
:104950001346DB009B1A9B001C4A1344F968184657
:1049600018F06FFB184B1B881946184A0B46DB00E2
:104970005B1A9B0013441033BA681A60124B1B88F1
:104980001946124A0B46DB005B1A9B001344143392
:104990007A681A600C4B1B8819460C4A0B46DB00E0
:1049A0005B1A9B00134418333A681A60064B1B8845
:1049B00001339AB2044B1A80002300E00123184609
:1049C0001037BD4680BD00BF901A0020900C00201B
:1049D00080B582B000AF0023FB800AE0FA88FB8834
:1049E000520109490A44094941F82320FB8801334F
:1049F000FB80FB880F2BF1D9054801F075F900BF4A
:104A00000837BD4680BD00BF941A0020941C0020CA
:104A1000C015020880B400AF034B1B781846BD4692
:104A20005DF8047B704700BFD91C002080B400AF44
:104A3000034B1B781846BD465DF8047B704700BFEA
:104A4000DA1C002080B400AF054B00221A60054B31
:104A5000C8221A8000BFBD465DF8047B704700BFC6
:104A6000DC1C0020E01C00202DE9B04F86B006AF12
:104A7000414B1B68002B75D03F4B1B7803F00103A3
:104A8000DBB2002B44D03D4B1B683D4A1288B3FB80
:104A9000F2F101FB02F29B1A002B63D1394B1B7818
:104AA000002B05D1384801F0E5F9364B01221A7088
:104AB000FCF722FC10EE103A1846FBF77DFD82460B
:104AC0008B46FCF74DFB10EE103A1846FBF774FDD1
:104AD00004460D46FCF788FB10EE103A1846FBF72B
:104AE0006BFD80468946FCF7C3FB10EE103A184672
:104AF000FBF762FD02460B46CDE90423CDE90289AE
:104B0000CDE9004552465B46204801F033F929E0E3
:104B1000194B1B7803F00203DBB2002B22D0174B9A
:104B20001B68174A5288B3FBF2F101FB02F29B1A91
:104B3000002B17D1134B1B78002B05D1144801F023
:104B400099F9104B01221A70FCF764FC0446FCF73B
:104B50006DFC0546FCF776FC03462A4621460D48C7
:104B600001F088F9054B1B680133044A13600023E8
:104B70001846BD46BDE8B08FDC1C0020E41C0020B8
:104B8000E01C0020D81C0020DC1502081C160208BE
:104B90004C1602088816020880B582B000AF0346A2
:104BA0000A46FB711346BB80244B00221A70FB7926
:104BB000012B03D9224801F097F83BE0BB88002B7A
:104BC00019D1204B00221A70FB79002B02D0012B47
:104BD00006D00BE01C4A13786FF30003137009E052
:104BE000194A13786FF34103137003E0164B002248
:104BF0001A6000BF1EE0BB88042B10D9FB79BA886D
:104C00001249A1FB0212920891B2114A22F8131024
:104C1000BB88132B0DD8094B01221A7009E00A4BEF
:104C200000221A600B4801F0A5F805210A4801F09E
:104C30005BF800BF0837BD4680BD00BFD91C00200F
:104C4000A0160208D81C0020DC1C0020CDCCCCCC47
:104C5000E01C0020D0160208EC16020880B584B0D3
:104C600000AF786039603B6804331B6822491846FE
:104C7000FBF7D6FA0346002B07D10023FB731F4A2C
:104C8000137843F00103137017E03B6804331B688B
:104C90001B491846FBF7C4FA0346002B07D1012332
:104CA000FB73164A137843F00203137005E01548AE
:104CB00001F01AF84FF0FF331AE07B68022B0EDD8B
:104CC0003B6808331B68184617F0ACFB0346BB81F2
:104CD000BA89FB7B11461846FFF75EFF07E00A48DA
:104CE00001F048F8FB7BC8211846FFF755FF002369
:104CF00018461037BD4680BD24170208DC1C002072
:104D00002C170208301702084C17020880B582B031
:104D100000AF78603960074800F0E6FF32233222A6
:104D200002210A20FEF7FCFE002318460837BD4684
:104D300080BD00BF8417020880B582B000AF7860E4
:104D40003960074800F0D0FF0023002201210A202B
:104D5000FEF7E6FE002318460837BD4680BD00BFBB
:104D6000D017020880B582B000AF7860396007487C
:104D700000F0BAFF0023002200210A20FEF7D0FE37
:104D8000002318460837BD4680BD00BFF41702084F
:104D900080B582B000AF78603960FDF7ABFD0448A4
:104DA00000F0A2FF002318460837BD4680BD00BFB3
:104DB0001818020880B582B000AF78603960FDF73E
:104DC000C7FD002318460837BD4680BD80B582B0B8
:104DD00000AF786039603B6804331B681846FDF704
:104DE0005DFD3B6804331B681946044800F07CFFF6
:104DF000002318460837BD4680BD00BF1C180208B6
:104E000080B582B000AF78603960FDF7B1FD002356
:104E100018460837BD4680BD80B584B000AF7860C5
:104E200039603B6804331B680A220021184619F0D8
:104E300037F80346FB60F868FDF73DFD034800F0D6
:104E400053FF002318461037BD4680BD18180208CE
:104E500080B584B002AF78603960094800F044FF43
:104E600042F21073009300234FF496724FF4967140
:104E70000120FCF79BFE002318460837BD4680BD85
:104E80003018020880B584B002AF786039600948F4
:104E900000F02AFF41F2883300934FF49673FA2210
:104EA000FA210220FCF782FE002318460837BD468F
:104EB00080BD00BF4018020880B584B002AF7860A2
:104EC0003960084800F010FF0023009300230022FF
:104ED00000210020FCF76AFE002318460837BD4673
:104EE00080BD00BF5018020880B584B000AF786064
:104EF00039603B6804331B680021184618F0F2FE45
:104F000087ED030AD7ED037AF5EEC07AF1EE10FAD9
:104F10000AD4F868FBF750FB11A3D3E90023FBF791
:104F200033FE0346002B03D00B4800F023FF0BE0B9
:104F3000F868FBF741FB02460B46084800F01AFFF1
:104F400097ED030A01F0ECF9002318461037BD462F
:104F500080BD00BFAFF300805C1802088C18020807
:104F60006666666666660A4080B582B000AF7860A5
:104F70003960054800F0FEFE01F026FA00231846CD
:104F80000837BD4680BD00BFAC18020880B584B0AC
:104F900000AF786039603B6804331B680A22002147
:104FA000184618F07DFF0346FB733B6808331B6807
:104FB0000A220021184618F073FF0346BB733B68B2
:104FC0000C331B680A220021184618F069FF0346BB
:104FD0007B737A7BB97BFB7B184601F01DFA0023BB
:104FE00018461037BD4680BD80B584B000AF7860EC
:104FF00039603B6804331B680A220021184618F008
:105000004FFF0346FB733B6808331B680A220021ED
:10501000184618F045FF0346BB733B680C331B680A
:105020000A220021184618F03BFF03467B733B68B9
:1050300010331B680A220021184618F031FF03467E
:105040003B733B7B7A7BB97BF87B01F011FA002341
:1050500018461037BD4680BD80B584B000AF78607B
:1050600039603B6804331B680A220021184618F097
:1050700017FF0346FB73FB7B002B03D0054B01227C
:105080005A7102E0034B00225A7100231846103770
:10509000BD4680BD540C002080B584B000AF786060
:1050A00039603B6804331B680A220021184618F057
:1050B000F7FE0346FB81FB894CF25032934205D93F
:1050C000074800F011FE4FF0FF3304E0FB8918465B
:1050D000FCF736FB002318461037BD4680BD00BFE5
:1050E000C418020880B584B000AF786039603B68AE
:1050F00004331B680A220021184618F0D1FE03462B
:10510000FB81FB894CF25032934205D9074800F0ED
:10511000EBFD4FF0FF3304E0FB891846FCF78CFCF5
:10512000002318461037BD4680BD00BFC4180208D2
:1051300080B582B000AF78603960FCF76FFA002369
:1051400018460837BD4680BD80B582B000AF786094
:105150003960FCF7D1FB002318460837BD4680BDF7
:1051600080B584B000AF786039603B6808331B6855
:1051700023491846FBF754F80346002B01D10123BD
:10518000FB733B6808331B681E491846FBF748F859
:105190000346002B01D10023FB733B6804331B68DB
:1051A000184617F03FF90346BB733B6808331B688A
:1051B000184617F037F9B860BB7B082B05D91248A1
:1051C00000F092FD4FF0FF3315E0BB68012B05DDC9
:1051D0000E4800F089FD4FF0FF330CE0FA7BBB7BFB
:1051E00011461846FDF71CFEBB7BFA7B19460848A2
:1051F00000F07AFD002318461037BD4680BD00BF81
:10520000E4180208E8180208EC1802080819020855
:105210004419020880B584B000AF786039603B68FB
:1052200004331B680A220021184618F039FE034691
:10523000FB73FB7B1846FEF791F8002318461037E6
:10524000BD4680BD80B584B000AF786039603B68F2
:1052500004331B680A220021184618F021FE034679
:10526000FB73FB7B002B14BF01230023DAB2034B3B
:105270001A70002318461037BD4680BDDA1C002086
:1052800080B584B000AF786039603B6808331B6834
:105290001E491846FAF7C4FF0346002B01D101232B
:1052A000FB733B6808331B6819491846FAF7B8FFC7
:1052B0000346002B01D10023FB733B6804331B68BA
:1052C000184617F0AFF80346BB733B6808331B68FA
:1052D000184617F0A7F8B860BB68012B05DD0D482C
:1052E00000F002FD4FF0FF330CE0FA7BBB7B114670
:1052F0001846FDF79DFEBB7BFA7B1946064800F079
:10530000F3FC002318461037BD4680BDE4180208A0
:10531000E818020860190208A419020880B584B0D0
:1053200000AF786039603B6808331B681E49184637
:10533000FAF776FF0346002B01D10123FB733B688C
:1053400008331B6819491846FAF76AFF0346002B11
:1053500001D10023FB733B6804331B68184617F028
:1053600061F80346BB733B6808331B68184617F0A7
:1053700059F8B860BB68012B05DD0D4800F0B4FC9E
:105380004FF0FF330CE0FA7BBB7B11461846FDF76C
:105390008DFEBB7BFA7B1946064800F0A5FC002376
:1053A00018461037BD4680BDE4180208E818020808
:1053B000C8190208081A020880B584B000AF7860E6
:1053C00039603B6804331B68184617F02BF8034616
:1053D000FB73FB7B012B05D90C4800F085FC4FF0DB
:1053E000FF330EE0FB7B002B14BF01230023DBB255
:1053F0001846FDF78BFEFB7B1946054800F074FC50
:10540000002318461037BD4680BD00BF281A020889
:10541000681A020880B584B000AF786039603B68D4
:1054200004331B68184616F0FDFF0346FB73FB7B35
:10543000012B05D90C4800F057FC4FF0FF330EE06C
:10544000FB7B002B14BF01230023DBB21846FDF7C2
:1054500087FEFB7B1946054800F046FC00231846F2
:105460001037BD4680BD00BF841A0208C41A020866
:1054700080B584B000AF786039603B6804331B6846
:10548000184616F0CFFF0346FB73FB7B012B05D9B3
:105490000C4800F029FC4FF0FF330EE0FB7B002BA3
:1054A00014BF01230023DBB21846FDF76BFEFB7B24
:1054B0001946054800F018FC002318461037BD4671
:1054C00080BD00BFE81A02082C1B020880B584B01A
:1054D00000AF786039603B6804331B68184616F0EB
:1054E000A1FF0346FB73FB7B012B05D90C4800F0A1
:1054F000FBFB4FF0FF330EE0FB7B002B14BF0123BF
:105500000023DBB21846FDF779FCFB7B1946054802
:1055100000F0EAFB002318461037BD4680BD00BFEF
:10552000501B0208901B020880B584B000AF786061
:1055300039603B6804331B68184616F073FF034656
:10554000FB73FB7B012B05D90C4800F0CDFB4FF022
:10555000FF330EE0FB7B002B14BF01230023DBB2E3
:105560001846FDF721FEFB7B1946054800F0BCFB01
:10557000002318461037BD4680BD00BFB01B02088F
:10558000F41B020880B584B000AF786039603B68D6
:1055900004331B68184616F045FF0346FB73FB7B7C
:1055A000012B05D90C4800F09FFB4FF0FF330EE0B4
:1055B000FB7B002B14BF01230023DBB21846FDF751
:1055C00005FEFB7B1946054800F08EFB00231846BC
:1055D0001037BD4680BD00BF781C0208C01C020801
:1055E00080B584B000AF786039603B6804331B68D5
:1055F000184616F017FF0346FB73FB7B012B05D9FA
:105600000B4800F071FB4FF0FF330DE0FB7B002BEC
:1056100014BF01230023DAB2064B1A70FB7B194634
:10562000054800F061FB002318461037BD4680BDD9
:10563000EC1C02083F700020301D020880B584B0C9
:1056400000AF786039603B6804331B68184616F079
:10565000E9FE0346FB73FB7B012B05D90C4800F0E8
:1056600043FB4FF0FF330EE0FB7B002B14BF012305
:105670000023DBB21846FDF7BBFDFB7B194605484E
:1056800000F032FB002318461037BD4680BD00BF36
:10569000501D0208981D020880B584B000AF7860E4
:1056A00039603B6804331B68184616F0BBFE03469E
:1056B000FB81FB89B3F5805F05D30A4800F014FB3A
:1056C0004FF0FF3309E0FB891946074800F00CFB57
:1056D000FB891846FDF79EFD002318461037BD468E
:1056E00080BD00BFC01D0208F01D020880B584B057
:1056F00000AF786039603B6804331B68184616F0C9
:1057000091FE0346FB81FB89B3F5805F05D30A4810
:1057100000F0EAFA4FF0FF3309E0FB891846FDF785
:105720008BFDFB891946054800F0DEFA0023184678
:105730001037BD4680BD00BF1C1E0208401E020877
:1057400080B582B000AF78603960FDF7CBFD0023F3
:1057500018460837BD4680BD80B582B000AF78607E
:105760003960FDF733FE002318460837BD4680BD7B
:1057700080B582B000AF78603960FDF7E7FE0023A6
:1057800018460837BD4680BD80B500AF0123012211
:1057900076497748FFF7CEF802230222754976480A
:1057A000FFF7C8F80123012274497548FFF7C2F8D2
:1057B0000223022273497448FFF7BCF80123012237
:1057C00072497348FFF7B6F8012301227149724804
:1057D000FFF7B0F80123012270497148FFF7AAF8DA
:1057E000012301226F497048FFF7A4F80123012229
:1057F0006E496F48FFF79EF8012301226D496E48FC
:10580000FFF798F8012301226C496D48FFF792F8E1
:10581000022302226B496C48FFF78CF80123012216
:105820006A496B48FFF786F80423042269496A48ED
:10583000FFF780F80523052268496948FFF77AF8E1
:105840000223022267496848FFF774F80223022204
:1058500066496748FFF76EF80223022265496648E9
:10586000FFF768F80123012264496548FFF762F8F1
:105870000123012263496448FFF75CF802230222F6
:1058800062496348FFF756F80323022261496248E0
:10589000FFF750F80323032260496148FFF74AF8F5
:1058A000032303225F496048FFF744F803230322E0
:1058B0005E495F48FFF73EF8022302225D495E48D9
:1058C000FFF738F8022302225C495D48FFF732F8FF
:1058D000022302225B495C48FFF72CF802230222D4
:1058E0005A495B48FFF726F80223022259495A48D1
:1058F000FFF720F80223022258495948FFF71AF807
:105900000223022257495848FFF714F802230222C3
:1059100056495748FFF70EF80223022255495648C8
:10592000FFF708F80223022254495548FFF702F80E
:105930000123012253495448FEF7FCFF01230122B1
:1059400052495348FEF7F6FF0123012251495248BC
:10595000FEF7F0FF0223022250495148FEF7EAFF0A
:10596000504800F0C1F900BF80BD00BF914D000854
:10597000641E0208CD4D00086C1E0208B54D0008DB
:10598000781E0208194E0008841E0208014E000805
:10599000941E02080D4D0008A41E0208394D00088F
:1059A000B01E0208654D0008BC1E0208514E0008DA
:1059B000C81E0208854E0008D41E0208B94E000811
:1059C000E01E0208E94E0008EC1E0208694F0008BC
:1059D000F41E02088D4F0008FC1E0208E94F000863
:1059E000041F0208595000080C1F020899500008B3
:1059F000181F0208E5500008201F02083151000856
:105A0000281F020849510008301F020815520008DB
:105A1000381F02085D4C0008401F02086151000851
:105A2000481F020881520008541F02081D53000835
:105A3000601F0208B9530008701F020815540008BF
:105A4000801F020871540008901F0208CD540008FE
:105A5000A01F020829550008AC1F02088555000840
:105A6000BC1F0208E1550008C41F02083D5600088B
:105A7000CC1F020899560008D81F0208ED560008EE
:105A8000E41F020841570008F01F02085957000898
:105A9000FC1F020871570008082002084552000840
:105AA000142002082020020880B500AF064B002217
:105AB0001A80064B00221A804FF40052002104483D
:105AC00016F0FCFC00BF80BDE83C0020EA3C002052
:105AD000E81C002080B483B000AF144B1A88144B2C
