:020000040800F2
:1000000000000420918D0008918600089786000862
:100010009D860008A3860008A9860008000000004D
:10002000000000000000000000000000AF86000893
:10003000BD86000800000000CB860008D9860008B5
:10004000E18D0008E18D0008E18D0008E18D0008D8
:10005000E18D0008E18D0008E18D0008E18D0008C8
:10006000E5860008E18D0008E18D0008E18D0008BB
:10007000E18D0008E18D0008E18D0008E18D0008A8
:10008000E18D0008E18D0008E18D0008E18D000898
:10009000E18D0008E18D0008E18D0008E18D000888
:1000A000E18D0008E18D0008E18D0008E18D000878
:1000B000F5860008E18D0008E18D0008E18D00085B
:1000C000E18D000809870008E18D0008E18D000836
:1000D000E18D0008E18D0008E18D0008E18D000848
:1000E0001D870008E18D0008E18D0008E18D000802
:1000F000E18D0008E18D0008E18D0008E18D000828
:10010000E18D0008E18D0008E18D0008E18D000817
:10011000E18D0008BD870008E18D0008D587000843
:10012000E9870008FD870008E18D0008E18D0008DF
:10013000118800080000000000000000000000001E
:1001400000000000000000000000000025880008FA
:1001500039880008E18D0008E18D0008E18D000874
:100160004D880008E18D0008E18D0008E18D000850
:10017000E18D0008E18D0008000000000000000093
:10018000E18D0008E18D0008E18D0008618800081C
:10019000E18D0008E18D000800000000E18D0008FD
:1001A000000000000000000000000000E18D0008D9
:1001B000E18D0008E18D0008000000000000000053
:1001C000000000000000000000000000000000002F
:1001D0000000000000000000000000007988000816
:1001E00010B5054C237833B9044B13B10448AFF371
:1001F00000800123237010BD6C050020000000006A
:10020000AC09020808B5034B1BB103490348AFF31F
:10021000008008BD0000000070050020AC09020845
:1002200010F8012B11F8013B012A28BF9A42F7D0A0
:10023000D01A7047034613F8012B002AFBD1181A75
:1002400001387047000000000000000000000000BE
:1002500001F0FF01102A2BDB10F0070F08D010F877
:10026000013B013A8B422DD010F0070F42B3F6D17B
:10027000F0B441EA012141EA014122F007047FF094
:1002800000070023F0E80256083C85EA010586EAEB
:10029000010685FA47F5A3FA87F586FA47F6A5FA27
:1002A00087F68EB9EED1F0BC01F0FF0102F0070233
:1002B00032B110F8013B013A83EA010313B1F8D1DE
:1002C0000020704701387047002D06BF35460338BF
:1002D000073815F0010F07D1013015F4807F02BFF8
:1002E000013015F4C03F0130F0BC0138704700BF49
:1002F00081F0004102E000BF83F0004330B54FEAD7
:1003000041044FEA430594EA050F08BF90EA020F43
:100310001FBF54EA000C55EA020C7FEA645C7FEAD6
:10032000655C00F0E2804FEA5454D4EB5555B8BFF9
:100330006D420CDD2C4480EA020281EA030382EA6A
:10034000000083EA010180EA020281EA0303362DFC
:1003500088BF30BD11F0004F4FEA01314FF4801CCF
:100360004CEA113102D0404261EB410113F0004FE1
:100370004FEA03334CEA133302D0524263EB430398
:1003800094EA050F00F0A780A4F10104D5F1200E36
:100390000DDB02FA0EFC22FA05F2801841F1000191
:1003A00003FA0EF2801843FA05F359410EE0A5F165
:1003B00020050EF1200E012A03FA0EFC28BF4CF096
:1003C000020C43FA05F3C01851EBE37101F000454C
:1003D00007D54FF0000EDCF1000C7EEB00006EEB59
:1003E0000101B1F5801F1BD3B1F5001F0CD34908E3
:1003F0005FEA30004FEA3C0C04F101044FEA44523A
:1004000012F5800F80F09A80BCF1004F08BF5FEAC0
:10041000500C50F1000041EB045141EA050130BDA0
:100420005FEA4C0C404141EB0101013C28BFB1F5B2
:10043000801FE9D291F0000F04BF01460020B1FAFD
:1004400081F308BF2033A3F10B03B3F120020CDAD0
:100450000C3208DD02F1140CC2F10C0201FA0CF0AE
:1004600021FA02F10CE002F11402D8BFC2F1200C13
:1004700001FA02F120FA0CFCDCBF41EA0C019040C9
:10048000E41AA2BF01EB0451294330BD6FEA040412
:100490001F3C1CDA0C340EDC04F11404C4F12002FD
:1004A00020FA04F001FA02F340EA030021FA04F30F
:1004B00045EA030130BDC4F10C04C4F1200220FA66
:1004C00002F001FA04F340EA0300294630BD21FAA4
:1004D00004F0294630BD94F0000F83F4801306BF6A
:1004E00081F480110134013D4EE77FEA645C18BF5E
:1004F0007FEA655C29D094EA050F08BF90EA020FF5
:1005000005D054EA000C04BF1946104630BD91EAEC
:10051000030F1EBF0021002030BD5FEA545C05D1EF
:100520004000494128BF41F0004130BD14F580042E
:100530003CBF01F5801130BD01F0004545F0FE41A2
:1005400041F470014FF0000030BD7FEA645C1ABFD7
:10055000194610467FEA655C1CBF0B46024650EA0E
:10056000013406BF52EA033591EA030F41F400213A
:1005700030BD00BF90F0000F04BF0021704730B5C0
:100580004FF4806404F132044FF000054FF0000195
:1005900050E700BF90F0000F04BF0021704730B556
:1005A0004FF4806404F1320410F0004548BF40422B
:1005B0004FF000013EE700BF42004FEAE2014FEA80
:1005C00031014FEA02701FBF12F07F4393F07F4F5B
:1005D00081F06051704732F07F4208BF704793F05E
:1005E0007F4F04BF41F40021704730B54FF4607471
:1005F00001F0004521F000411CE700BF50EA010274
:1006000008BF704730B54FF000050AE050EA01021C
:1006100008BF704730B511F0004502D5404261EB8C
:1006200041014FF4806404F132045FEA915C3FF4CD
:10063000D8AE4FF003025FEADC0C18BF03325FEA6A
:10064000DC0C18BF033202EBDC02C2F1200300FA1B
:1006500003FC20FA02F001FA03FE40EA0E0021FA40
:1006600002F11444BDE600BF70B54FF0FF0C4CF42E
:10067000E06C1CEA11541DBF1CEA135594EA0C0FE0
:1006800095EA0C0F00F0DEF82C4481EA030621EA1B
:100690004C5123EA4C5350EA013518BF52EA033556
:1006A00041F4801143F4801338D0A0FB02CE4FF008
:1006B0000005E1FB02E506F00042E0FB03E54FF038
:1006C0000006E1FB03569CF0000F18BF4EF0010E30
:1006D000A4F1FF04B6F5007F64F5407404D25FEA2C
:1006E0004E0E6D4146EB060642EAC62141EA5551DF
:1006F0004FEAC52040EA5E504FEACE2EB4F1FD0C21
:1007000088BFBCF5E06F1ED8BEF1004F08BF5FEA9E
:10071000500E50F1000041EB045170BD06F0004650
:1007200046EA010140EA020081EA0301B4EB5C04FD
:10073000C2BFD4EB0C0541EA045170BD41F48011F5
:100740004FF0000E013C00F3AB8014F1360FDEBF1A
:10075000002001F0004170BDC4F10004203C35DAF6
:100760000C341BDC04F11404C4F1200500FA05F379
:1007700020FA04F001FA05F240EA020001F000421A
:1007800021F0004110EBD37021FA04F642EB060190
:100790005EEA430E08BF20EAD37070BDC4F10C04BA
:1007A000C4F1200500FA04F320FA05F001FA04F27E
:1007B00040EA020001F0004110EBD37041F100016A
:1007C0005EEA430E08BF20EAD37070BDC4F1200575
:1007D00000FA05F24EEA020E20FA04F301FA05F2DD
:1007E00043EA020321FA04F001F0004121FA04F285
:1007F00020EA020000EBD3705EEA430E08BF20EA55
:10080000D37070BD94F0000F0FD101F0004640008E
:1008100041EB010111F4801F08BF013CF7D041EA10
:10082000060195F0000F18BF704703F00046520014
:1008300043EB030313F4801F08BF013DF7D043EAE5
:100840000603704794EA0C0F0CEA135518BF95EA9B
:100850000C0F0CD050EA410618BF52EA4306D1D122
:1008600081EA030101F000414FF0000070BD50EA41
:10087000410606BF1046194652EA430619D094EACB
:100880000C0F02D150EA013613D195EA0C0F05D1B5
:1008900052EA03361CBF104619460AD181EA030109
:1008A00001F0004141F0FE4141F470014FF00000C1
:1008B00070BD41F0FE4141F4780170BD70B54FF05C
:1008C000FF0C4CF4E06C1CEA11541DBF1CEA1355DC
:1008D00094EA0C0F95EA0C0F00F0A7F8A4EB0504BE
:1008E00081EA030E52EA03354FEA013100F08880B5
:1008F0004FEA03334FF0805545EA131343EA12637E
:100900004FEA022245EA111545EA10654FEA002632
:100910000EF000419D4208BF964244F1FD0404F5EB
:10092000407402D25B084FEA3202B61A65EB030547
:100930005B084FEA32024FF480104FF4002CB6EB04
:10094000020E75EB030E22BFB61A754640EA0C0084
:100950005B084FEA3202B6EB020E75EB030E22BFC4
:10096000B61A754640EA5C005B084FEA3202B6EB05
:10097000020E75EB030E22BFB61A754640EA9C00C4
:100980005B084FEA3202B6EB020E75EB030E22BF94
:10099000B61A754640EADC0055EA060E18D04FEA52
:1009A000051545EA16754FEA06164FEAC30343EAF2
:1009B00052734FEAC2025FEA1C1CC0D111F4801FBF
:1009C0000BD141EA00014FF000004FF0004CB6E7B8
:1009D00011F4801F04BF01430020B4F1FD0C88BF57
:1009E000BCF5E06F3FF6AFAEB5EB030C04BFB6EB62
:1009F000020C5FEA500C50F1000041EB045170BD55
:100A00000EF0004E4EEA113114EB5C04C2BFD4EB81
:100A10000C0541EA045170BD41F480114FF0000E05
:100A2000013C90E645EA060E8DE60CEA135594EA81
:100A30000C0F08BF95EA0C0F3FF43BAF94EA0C0F84
:100A40000AD150EA01347FF434AF95EA0C0F7FF4F9
:100A500025AF104619462CE795EA0C0F06D152EA4D
:100A600003353FF4FDAE1046194622E750EA410631
:100A700018BF52EA43067FF4C5AE50EA41047FF442
:100A80000DAF52EA43057FF4EBAE12E74FF0FF3CA7
:100A900006E000BF4FF0010C02E000BF4FF0010C78
:100AA0004DF804CD4FEA410C7FEA6C5C4FEA430CF1
:100AB00018BF7FEA6C5C1BD001B050EA410C0CBF40
:100AC00052EA430C91EA030F02BF90EA020F0020A2
:100AD000704710F1000F91EA030F58BF994208BF09
:100AE00090422CBFD8176FEAE37040F001007047C6
:100AF0004FEA410C7FEA6C5C02D150EA013C07D11D
:100B00004FEA430C7FEA6C5CD6D152EA033CD3D067
:100B10005DF8040B704700BF8446104662468C4661
:100B20001946634600E000BF01B5FFF7B7FF002894
:100B300048BF10F1000F01BD4DF808EDFFF7F4FFBD
:100B40000CBF012000205DF808FB00BF4DF808ED48
:100B5000FFF7EAFF34BF012000205DF808FB00BF6B
:100B60004DF808EDFFF7E0FF94BF012000205DF88D
:100B700008FB00BF4DF808EDFFF7CEFF94BF012042
:100B800000205DF808FB00BF4DF808EDFFF7C4FF3B
:100B900034BF012000205DF808FB00BF4FEA410C84
:100BA0007FEA6C5C02D150EA013C0AD14FEA430C67
:100BB0007FEA6C5C02D152EA033C02D14FF00000A4
:100BC00070474FF0010070474FEA410212F50012E2
:100BD00015D211D56FF47873B3EB625212D94FEA84
:100BE000C12343F0004343EA505311F0004F23FA6E
:100BF00002F018BF404270474FF00000704750EAC3
:100C0000013005D111F0004008BF6FF0004070477F
:100C10004FF00000704700BF4A0011D212F50012D9
:100C200011D20DD56FF47873B3EB62520ED44FEA44
:100C3000C12343F0004343EA505323FA02F07047C4
:100C40004FF00000704750EA013002D14FF0FF3002
:100C500070474FF0000070474FEA4102B2F1E043A5
:100C600024BFB3F5001CDCF1FE5C0DD901F0004C93
:100C70004FEAC0024CEA5070B2F1004F40EB8300E3
:100C800008BF20F00100704711F0804F21D113F10F
:100C90003872BCBF01F00040704741F480114FEA48
:100CA0005252C2F11802C2F1200C10FA0CF320FAD1
:100CB00002F018BF40F001004FEAC1234FEAD323EE
:100CC00003FA0CFC40EA0C0023FA02F34FEA430358
:100CD000CCE77FEA625307D150EA01331EBF4FF0E1
:100CE000FE4040F44000704701F0004040F0FE40FC
:100CF00040F40000704700BF53B94AB9002908BF4B
:100D000000281CBF4FF0FF314FF0FF3000F0A4B9B6
:100D1000ADF1080C6DE904CE00F03CF8DDF804E01C
:100D2000DDE9022304B0704738B5002200230446F1
:100D30000D46FFF70BFF28B920462946BDE838408D
:100D400000F00AB8204605F1004100F005F84042E5
:100D500061EB410138BD00BFD0B50C4B0022064607
:100D60000F46FFF781FCFFF757FF0446FFF702FC31
:100D7000074B0022FFF778FC02460B463046394607
:100D8000FFF7BAFAFFF748FF2146D0BD0000F03D5B
:100D90000000F0412DE9F047089D04468C46002BE9
:100DA00040F083808A42174647D9B2FA82F242B1B4
:100DB000C2F1200024FA00F09140974040EA010C73
:100DC00094404FEA1748230CBCFBF8F61FFA87FE45
:100DD00008FB16C143EA014306FB0EF1994209D90B
:100DE000FB1806F1FF3080F01981994240F216811C
:100DF000023E3B445B1AA4B2B3FBF8F008FB10338D
:100E000044EA034400FB0EFEA64509D93C1900F153
:100E1000FF3380F00581A64540F2028102383C4450
:100E200040EA0640A4EB0E0400261DB1D440002386
:100E3000C5E900433146BDE8F08702B9FFDEB2FAEA
:100E400082F2002A50D1CB1B4FEA174E1FFA87F8C7
:100E50000126B3FBFEFC210C0EFB1C3341EA0341CF
:100E600008FB0CF38B4207D979180CF1FF3002D242
:100E70008B4200F2E9808446C91AA3B2B1FBFEF0AE
:100E80000EFB101143EA014408FB00F8A04507D906
:100E90003C1900F1FF3302D2A04500F2D980184678
:100EA000A4EB080440EA0C40BFE78B4209D9002DAF
:100EB00000F0B1800026C5E9000130463146BDE8AA
:100EC000F087B3FA83F6002E4AD18B4202D38242D6
:100ED00000F2B880841A61EB030101208C46002DDA
:100EE000A8D0C5E9004CA5E7C2F1200320FA03F61B
:100EF000974001FA02F04FEA174ED9403043030CF5
:100F0000B1FBFEF61FFA87F80EFB161143EA014308
:100F100006FB08F1994204FA02F409D9FB1806F11C
:100F2000FF3C80F08D80994240F28A80023E3B4433
:100F30005B1A81B2B3FBFEF00EFB103341EA0341B2
:100F400000FB08F38B4207D9791800F1FF3C73D2FC
:100F50008B4271D902383944CB1A40EA064678E709
:100F6000C6F1200C03FA06F422FA0CF31C4320FA13
:100F70000CF701FA06F34FEA144E21FA0CF11F4365
:100F80003B0CB1FBFEF91FFA84F80EFB191143EA82
:100F9000014109FB08FA8A4502FA06F200FA06F353
:100FA00008D9611809F1FF3048D28A4546D9A9F11C
:100FB00002092144A1EB0A01BFB2B1FBFEF00EFB16
:100FC000101147EA014700FB08F8B84507D9E719AF
:100FD00000F1FF312ED2B8452CD90238274440EA1F
:100FE0000940A7EB0807A0FB02894F45C6464946C2
:100FF0001AD317D05DB1B3EB0E0267EB010707FA06
:101000000CFCF2404CEA0202F740C5E9002700263A
:101010003146BDE8F0872E4628460BE70646E9E64E
:101020001846FDE64345E5D2B8EB020E69EB040134
:101030000138DFE70846D2E760468DE78146B9E729
:10104000664675E730464AE7ACF1020C394413E7CF
:1010500002383C4424E700BF704700BF80B500AFB2
:10106000044B01221A7007220349044808F04CF887
:1010700000BF80BD080000208C050020044A00202D
:1010800080B483B000AF0346FB71044AFB79137050
:1010900000BF0C37BD465DF8047B70478805002013
:1010A00080B400AF074B1B6807EE903AF8EE677A02
:1010B0009FED057A67EE877AB0EE670ABD465DF868
:1010C000047B70478C05002000404E3F80B400AF89
:1010D000074B5B6807EE903AF8EE677A9FED057A6A
:1010E00067EE877AB0EE670ABD465DF8047B70470D
:1010F0008C05002000404E3F80B400AF074B9B683A
:1011000007EE903AF8EE677A9FED057A67EE877AF8
:10111000B0EE670ABD465DF8047B70478C05002081
:1011200000404E3F80B400AF074B5B6907EE903A3A
:10113000F8EE677A9FED057A67EE877AB0EE670A78
:10114000BD465DF8047B70478C05002000404E3F93
:1011500080B500AFFFF7D0FF10EE103A1846FFF74A
:101160002BFA4FF000021A4BFFF7A8FB02460B4682
:10117000104619464FF00002164BFFF7BDF8024625
:101180000B46104619460EA3D3E90023FFF796FB42
:1011900002460B46104619460BA3D3E90023FFF77E
:1011A00063FA02460B4610461946FFF755FD034603
:1011B00007EE903AB0EE670A80BD00BFAFF3008043
:1011C0009A9999999999E93F88F4DBD781DB49404D
:1011D00000408F400000E03F80B500AFFFF760FFA8
:1011E00010EE103A1846FFF7E7F94FF000021A4BDD
:1011F000FFF764FB02460B46104619464FF000020B
:10120000164BFFF779F802460B46104619460EA317
:10121000D3E90023FFF752FB02460B46104619465E
:101220000BA3D3E90023FFF71FFA02460B46104633
:101230001946FFF711FD034607EE903AB0EE670A34
:1012400080BD00BFAFF300809A9999999999E93FC1
:1012500088F4DBD781DB494000408F400000E03F4D
:1012600080B500AFFFF75EFF10EE103A1846FFF7AB
:10127000A3F94FF000021A4BFFF720FB02460B4682
:10128000104619464FF00002164BFFF735F802469C
:101290000B46104619460EA3D3E90023FFF70EFBB9
:1012A00002460B46104619460BA3D3E90023FFF76D
:1012B000DBF902460B4610461946FFF7CDFC034604
:1012C00007EE903AB0EE670A80BD00BFAFF3008032
:1012D0009A9999999999E93F88F4DBD781DB49403C
:1012E00000408F400000E03F80B582B000AF184B57
:1012F0005B68FB80FB88174A12889B1A07EE903ABE
:10130000B8EEE77A144BD3ED007A67EE277A9FEDBB
:10131000137A67EE877A17EE900AFFF74DF90AA362
:10132000D3E90023FFF7A0F902460B461046194601
:10133000FFF792FC034607EE903AB0EE670A0837D3
:10134000BD4680BDAFF300802DE92807B389E73F94
:101350008C05002000000020040000200F86823F42
:1013600080B400AF074BDB6807EE903AF8EE677A7F
:101370009FED057A67EE877AB0EE670ABD465DF8A5
:10138000047B70478C05002000404E3F80B400AFC6
:10139000074B1B6907EE903AF8EE677A9FED057AE6
:1013A00067EE877AB0EE670ABD465DF8047B70474A
:1013B0008C05002000404E3F80B400AF074B9B6976
:1013C00007EE903AF8EE677A9FED057A67EE877A36
:1013D000B0EE670ABD465DF8047B70478C050020BF
:1013E00000404E3F80B483B000AF0346FB71044A17
:1013F000FB79137000BF0C37BD465DF8047B704766
:101400008905002080B400AF034B1B691846BD4618
:101410005DF8047B704700BFA805002080B400AFD2
:10142000034B9B691846BD465DF8047B704700BFBF
:10143000A805002080B400AF034BDB691846BD4609
:101440005DF8047B704700BFA805002080B400AFA2
:10145000074B1B6807EE903AF8EE677A9FED057A26
:1014600067EE877AB0EE670ABD465DF8047B704789
:10147000A805002000404E3F80B400AF074B5B68DA
:1014800007EE903AF8EE677A9FED057A67EE877A75
:10149000B0EE670ABD465DF8047B7047A8050020E2
:1014A00030EDDD3B80B400AF074B9B6807EE903A10
:1014B000F8EE677A9FED057A67EE877AB0EE670AF5
:1014C000BD465DF8047B7047A8050020FEC6683A5B
:1014D00080B400AF074BDB6807EE903AF8EE677A0E
:1014E0009FED057A67EE877AB0EE670ABD465DF834
:1014F000047B7047A8050020FE0AB03A80B400AF14
:10150000074B1B6907EE903AF8EE677A9FED057A74
:1015100067EE877AB0EE670ABD465DF8047B7047D8
:10152000A80500206A40D33A80B400AF074B5B693E
:1015300007EE903AF8EE677A9FED057A67EE877AC4
:10154000B0EE670ABD465DF8047B7047A805002031
:1015500000404E3F80B400AF074B9B6907EE903AC6
:10156000F8EE677A9FED057A67EE877AB0EE670A44
:10157000BD465DF8047B7047A80500206DD0183E7D
:1015800080B400AF074BDB6907EE903AF8EE677A5C
:101590009FED057A67EE877AB0EE670ABD465DF883
:1015A000047B7047A80500207D8FF73D80B582B091
:1015B00000AF124807F0A2FE114B00221A7007225A
:1015C00010490E4807F0A0FD07F05CFC78600AE0C7
:1015D00007F058FC02467B68D31A032B03D90A484C
:1015E00004F07AFB06E0064B1B7883F00103DBB2C4
:1015F000002BEDD10837BD4680BD00BF044A002056
:10160000880500208C050020C80902082DE9B04F8C
:101610009AB00CAF414807F071FE414B00221A709E
:10162000072240493D4807F06FFD07F02BFC786327
:101630000AE007F027FC02467B6BD31A032B03D981
:10164000394804F049FB65E0354B1B7883F0010312
:10165000DBB2002BEDD1314807F050FEFFF720FD43
:1016600087ED0C0AFFF732FD87ED0B0AFFF744FD0B
:1016700087ED0A0AFFF774FE87ED090AFFF786FE79
:1016800087ED080AFFF74EFD87ED070AFFF794FE86
:1016900087ED060AF86AFEF78FFFC7E90401B86A0A
:1016A000FEF78AFF80468946386BFEF785FF824643
:1016B0008B46F869FEF780FFC7E90201786AFEF7FA
:1016C0007BFFC7E90001386AFEF776FF04460D4646
:1016D000B869FEF771FF02460B46CDE90A23CDE952
:1016E000084597ED007B8DED067B97ED027B8DED38
:1016F000047BCDE902ABCDE90089D7E904230B488F
:1017000004F0EAFA064B00221A7007220549034842
:1017100007F0FAFC3837BD46BDE8B08F044A002018
:10172000880500208C050020C8090208E809020885
:101730002DE9B04F9EB00CAF0346FB834B4807F03A
:10174000DDFD4B4B00221A7007224A49474807F03B
:10175000DBFC494804F006FB00237B647AE007F0D9
:1017600091FB38640AE007F08DFB02463B6CD31A0C
:10177000032B03D9414804F0AFFA72E03C4B1B78CD
:1017800083F00103DBB2002BEDD1384807F0B6FD42
:10179000FFF786FC87ED0F0AFFF798FC87ED0E0A2E
:1017A000FFF7AAFC87ED0D0AFFF7DAFD87ED0C0ABB
:1017B000FFF7ECFD87ED0B0AFFF7B4FC87ED0A0A93
:1017C000FFF7FAFD87ED090A294B00221A7007225C
:1017D0002849264807F098FCB86BFEF7EDFEC7E9EC
:1017E0000401786BFEF7E8FE80468946F86BFEF749
:1017F000E3FE82468B46B86AFEF7DEFEC7E90201C9
:10180000386BFEF7D9FEC7E90001F86AFEF7D4FE8F
:1018100004460D46786AFEF7CFFE02460B46CDE938
:101820000A23CDE9084597ED007B8DED067B97ED0A
:10183000027B8DED047BCDE902ABCDE90089D7E9D0
:1018400004230F4804F08EFA052007F027FB7B6C79
:1018500001337B64FB8B7A6C9A4280DB094804F08D
:101860003BFA4837BD46BDE8B08F00BF044A0020B0
:10187000880500208C050020780A0208C8090208A3
:10188000C00A0208F80A020880B582B000AF124808
:1018900007F034FD114B00221A70082210490E483F
:1018A00007F032FC07F0EEFA78600AE007F0EAFA97
:1018B00002467B68D31A032B03D90A4804F00CFABA
:1018C00006E0064B1B7883F00103DBB2002BEDD161
:1018D0000837BD4680BD00BF4C4A00208905002066
:1018E000A8050020FC0A02082DE9B04FA0B00EAFF9
:1018F000484807F003FD484B00221A700822474968
:10190000444807F001FC07F0BDFA78640AE007F0EC
:10191000B9FA02467B6CD31A032B03D9404804F072
:10192000DBF972E03C4B1B7883F00103DBB2002B48
:10193000EDD1384807F0E2FCFFF788FD87ED100A8B
:10194000FFF79AFD87ED0F0AFFF7ACFD87ED0E0A52
:10195000FFF7BEFD87ED0D0AFFF7D0FD87ED0C0AFE
:10196000FFF7E2FD87ED0B0AFFF7F4FD87ED0A0AAA
:10197000FFF706FE87ED090A386CFEF71DFEC7E982
:101980000601F86BFEF718FE82468B46B86BFEF731
:1019900013FEC7E90401786BFEF70EFEC7E90201EA
:1019A000386BFEF709FEC7E90001F86AFEF704FE8E
:1019B00080468946B86AFEF7FFFD04460D46786A00
:1019C000FEF7FAFD02460B46CDE90C23CDE90A45A8
:1019D000CDE9088997ED007B8DED067B97ED027BC5
:1019E0008DED047B97ED047B8DED027BCDE900ABA3
:1019F000D7E906230B4804F06FF9074B00221A7051
:101A000008220649034807F07FFB4837BD46BDE87A
:101A1000B08F00BF4C4A002089050020A805002097
:101A2000FC0A02081C0B02082DE9B04FA2B00EAF51
:101A30000346FB84524807F061FC524B00221A70A7
:101A4000082251494E4807F05FFB504804F08AF9DC
:101A50000023FB6487E007F015FAB8640AE007F09A
:101A600011FA0246BB6CD31A032B03D9484804F081
:101A700033F980E0434B1B7883F00103DBB2002B8A
:101A8000EDD13F4807F03AFCFFF7E0FC87ED110A83
:101A9000FFF7F2FC87ED100AFFF704FD87ED0F0A50
:101AA000FFF716FD87ED0E0AFFF728FD87ED0D0AFB
:101AB000FFF73AFD87ED0C0AFFF74CFD87ED0B0AA7
:101AC000FFF75EFD87ED0A0A2E4B00221A700822EE
:101AD0002D492B4807F018FB786CFEF76DFDC7E920
:101AE0000601386CFEF768FD82468B46F86BFEF700
:101AF00063FDC7E90401B86BFEF75EFDC7E90201AB
:101B0000786BFEF759FDC7E90001386BFEF754FD0D
:101B100080468946F86AFEF74FFD04460D46B86ACE
:101B2000FEF74AFD02460B46CDE90C23CDE90A45F6
:101B3000CDE9088997ED007B8DED067B97ED027B63
:101B40008DED047B97ED047B8DED027BCDE900AB41
:101B5000D7E906230F4804F005F9052007F09EF9A0
:101B6000FB6C0133FB64FB8CFA6C9A42FFF673AF9B
:101B7000094804F0B1F85037BD46BDE8B08F00BF4A
:101B80004C4A002089050020A8050020D40B02083B
:101B9000FC0A02082C0C0208F80A020890B482B071
:101BA00000AF0446084611461A462346FB71034619
:101BB000BB800B467B8013463B80334B1B68BA8847
:101BC0003249A1FB0212920892B29A802E4B1B68F6
:101BD0007A882E49A1FB0212920892B2DA802A4B2F
:101BE0001B683A882949A1FB0212920892B21A8115
:101BF000254B1B683A8A2549A1FB0212920892B232
:101C00005A81214B1B68FA795A70FB79022B24D038
:101C1000022B2FDC002B02D0012B11D02AE01A4B13
:101C20001B6800221A701A4B1B6800221A64164B9C
:101C30001B6800229A70144B1B680022DA701EE0A9
:101C4000114B1B6801221A700F4B1B6803229A70FC
:101C50000D4B1B680022DA7011E00B4B1B68012250
:101C60001A70094B1B6803229A70074B1B680222EB
:101C7000DA7004E0044B1B6800221A7000BF00BF3A
:101C80000837BD4690BC7047D4050020CDCCCCCCE5
:101C9000D86E002080B500AF9A4B1B681B78072BCD
:101CA00000F21F8101A252F823F000BFED1E0008D0
:101CB000CD1C00080F1D00085F1D0008CF1D000887
:101CC000271E0008751E0008C51E00088D4B1B68E6
:101CD0009B78002B16D08B4B1B689B88002B11D058
:101CE000884B1B689A88884B1A80864B1B689A78A9
:101CF000864B1A70834B1B6802221A70012000F079
:101D00001DF906E17F4B1B6800221A7001E17E4B32
:101D10001B88013B9AB27C4B1A807B4B1B88002BA3
:101D200040F0E680002000F009F9784B1B78013B79
:101D3000DAB2764B1A70734B1B68DB88002B09D024
:101D4000704B1B6803221A706E4B1B68DA886E4B4F
:101D50001A80CDE06B4B1B6800221A70C8E06A4BFA
:101D60001B88013B9AB2684B1A80674B1B88002B7B
:101D700040F0C080654B1B78002B1BD1002000F089
:101D8000DDF8604B1B685B78012B09D15D4B1B684C
:101D900007221A705B4B1B685A895B4B1A80A9E0BB
:101DA000584B1B6804221A70564B1B681A89564BF5
:101DB0001A809FE0534B1B6802221A70514B1B681C
:101DC000DA88514B1A80012000F0B8F892E04E4BAF
:101DD0001B88013B9AB24C4B1A804B4B1B88002B43
:101DE00040F08A80474B1B68DB78002B16D0454BB0
:101DF0001B689B88002B11D0424B1B689A88424B72
:101E00001A80404B1B68DA78404B1A703D4B1B68B8
:101E100005221A70012000F091F86DE0394B1B6823
:101E200000221A7068E0384B1B88013B9AB2364B8F
:101E30001A80354B1B88002B60D1002000F07EF803
:101E4000324B1B78013BDAB2304B1A702D4B1B68BA
:101E5000DB88002B09D02B4B1B6806221A70294BFC
:101E60001B68DA88284B1A8048E0264B1B68002242
:101E70001A7043E0244B1B88013B9AB2224B1A8014
:101E8000214B1B88002B3BD1204B1B78002B0CD106
:101E9000002000F053F81B4B1B6807221A70194BE7
:101EA0001B685A89184B1A802AE0164B1B680522BA
:101EB0001A70144B1B68DA88134B1A80012000F04B
:101EC0003DF81DE0104B1B88013B9AB20E4B1A8067
:101ED0000D4B1B88002B1BD10A4B1B6801221A706B
:101EE00016E0084B1B6800221A7012E000BF10E0D9
:101EF00000BF0EE000BF0CE000BF0AE000BF08E03A
:101F000000BF06E0D4050020D8050020DA05002037
:101F100000BF00BF80BD00BF80B400AF054B0022F2
:101F20001A70054B034A1A6000BFBD465DF8047B7A
:101F3000704700BFC8050020D405002080B483B0DE
:101F400000AF0346FB71FB79002B04D0074B1B68E5
:101F50007D221A6403E0054B1B6800221A6400BF4F
:101F60000C37BD465DF8047B704700BFD86E00207B
:101F700080B582B000AF0346FB71064AFB7913704F
:101F8000FB791946044803F0A7FE00BF0837BD4699
:101F900080BD00BF09000020740C020880B500AFAE
:101FA00002F096F901F060FDFFF7B6FF0B4B00223F
:101FB0001A710A4B00221A60084B00229A60074BE4
:101FC00001221A730020FFF7D3FF054B01221A707C
:101FD000044B024A1A6000BF80BD00BFE00500202C
:101FE000DB050020F005002090B583B000AF02F0C3
:101FF000A5F90346002B50D03F4B1C6803F0A2FF0D
:10200000034623607A1DBB1D1146184602F05CFA98
:10201000BB79013B082B38D801A252F823F000BF4E
:10202000452000084B200008552000085B200008D0
:10203000652000086B200008712000087720000848
:10204000852000080223FB7120E00323FB7102F0CE
:102050006FFA1BE00423FB7118E00523FB7102F00B
:102060009BFA13E00623FB7110E00723FB710DE0E0
:102070000823FB710AE00923FB7102F0A7FA02F0C2
:1020800071FA03E00A23FB7100E000BFFB791846F8
:1020900000F064F9194AFB791370174B1B681B6831
:1020A000002B14D003F04EFF0246134B1B681B6835
:1020B000D21A134B1B689A4209D30F4B1B6800229C
:1020C0001A60012000F04AF90C4B01221A7001F04D
:1020D00063FEFFF7DFFD0B4B1B78002B07D0094B8E
:1020E00000221A70054B1B78184600F037F900BF24
:1020F0000C37BD4690BD00BFF0050020DB05002079
:102100000C000020DC05002080B58CB002AF142349
:102110000093184B00220021012001F083FC0B20CA
:1021200005F004FD0346381D134A20211AF05EFE17
:1021300078627B6ADBB23A1D0093134600220121CC
:10214000002001F06FFC381D0C4B00930C4B0D4A26
:1021500020211AF04BFE78627B6ADBB23A1D0093B5
:10216000134600220321002001F05CFC00BF283749
:10217000BD4680BD880C0208A00C02084B1D002043
:10218000551D0020B00C020880B582B002AF1423A8
:102190000093084B00220021012001F043FC14238E
:1021A0000093054B00220121002001F03BFC00BF01
:1021B000BD4680BDB80C0208D00C020880B582B0C4
:1021C00002AF14230093084B00220021012001F0EC
:1021D00029FC14230093054B00220121002001F06B
:1021E00021FC00BFBD4680BDB80C0208E80C020807
:1021F00080B582B002AF14230093084B0022002167
:10220000012001F00FFC14230093054B0022012153
:10221000002001F007FC00BFBD4680BDB80C0208DD
:10222000000D020880B582B002AF14230093084B62
:1022300000220021012001F0F5FB14230093054B3F
:1022400000220121002001F0EDFB00BFBD4680BD52
:10225000B80C0208180D020880B582B002AF142332
:102260000093084B00220021012001F0DBFB142326
:102270000093054B00220121002001F0D3FB00BF99
:10228000BD4680BDB80C0208300D020880B582B092
:1022900002AF14230093084B00220021012001F01B
:1022A000C1FB14230093054B00220121002001F003
:1022B000B9FB00BFBD4680BDB80C0208480D02083E
:1022C00080B582B002AF14230093084B0022002196
:1022D000012001F0A7FB14230093054B00220121EC
:1022E000002001F09FFB00BFBD4680BDB80C020876
:1022F000600D020880B582B002AF14230093084B32
:1023000000220021012001F08DFB14230093054BD6
:1023100000220121002001F085FB00BFBD4680BDE9
:10232000B80C0208780D020880B582B002AF142301
:102330000093084B00220021012001F073FB1423BD
:102340000093054B00220121002001F06BFB00BF30
:10235000BD4680BDB80C0208900D020880B582B061
:1023600000AF0346FB71FB79002B07D0FB790A2BEA
:1023700004D8FB79034A52F82330984700BF083746
:10238000BD4680BD1000002080B400AF034B012289
:102390001A7000BFBD465DF8047B7047DC05002065
:1023A00080B400AF034B1B781846BD465DF8047B34
:1023B000704700BFB40A002080B483B000AF03466A
:1023C000FB71044AFB79137000BF0C37BD465DF802
:1023D000047B7047B40A002080B584B002AF034686
:1023E0003960FB801346BB80BB88FA8801933B6849
:1023F00000930223A021064808F02AFE0346002B82
:1024000002D0044803F068FC00BF0837BD4680BD19
:1024100070420020A80D020880B500AF044B0122D5
:102420001A70022203497E20FFF7D6FF00BF80BD4D
:10243000AE0A00209408002080B500AF044B0122B2
:102440001A70042203497A20FFF7C6FF00BF80BD3F
:10245000AF0A00209C08002080B500AF044B012289
:102460001A70022203497520FFF7B6FF00BF80BD36
:10247000B00A0020A808002080B500AF064B00225B
:102480001A80064B00221A80FFF7C6FF102104486D
:1024900003F022FC00BF80BD880800208A080020CD
:1024A0000C0E020880B483B000AF144B1A88144B92
:1024B0001B88D31A9BB2FB80FA88124B1A80B7F99B
:1024C0000630002B01D1012311E0B7F90630002BB3
:1024D00003DAFB8820339BB2FB80B7F906300A4A47
:1024E0001288934202DDFA88074B1A8000231846AF
:1024F0000C37BD465DF8047B704700BF8A0800209A
:1025000088080020920800209008002080B483B042
:1025100000AF0E4B1A880E4B1B88D31A9BB2FB8060
:10252000B7F90630002B03DAFB8820339BB2FB801F
:10253000B7F906301F2B01D1012300E00023184614
:102540000C37BD465DF8047B704700BF8A08002049
:102550008808002080B588B002AF03463960FB8050
:102560001346BB80BB88FB820023BB82FB88DBB2A7
:1025700003F07F03BB74BB7CC3F1FF2303F57F0330
:102580008033FB746BE003F09FFCF8600AE0F868AE
:1025900003F0ACFC03460A2B04D9354803F09CFB3E
:1025A000012360E0334B1B78002BF0D10AE0F86880
:1025B00003F09CFC0346032B04D92F4803F08CFB4B
:1025C000012350E02D4808F033FE0346202BEED1C6
:1025D000FB7C9BB2FA8A9A421DD8264B01221A70C4
:1025E000FA88BB8A134499B2BB8A3A681344FA8AC0
:1025F0000192009302230A46A021204808F094FC8F
:102600000346002B04D01E4803F066FB01232AE09A
:10261000FB8ABB821DE0174B01221A70FA88BB8A25
:10262000134499B2BB8A3A681344FA7C92B201927D
:10263000009302230A46A021104808F075FC0346C7
:10264000002B04D00F4803F047FB01230BE0FB7C79
:10265000BB82FA8ABB8AD31AFB828023FB74FB8A73
:10266000002B90D1002318461837BD4680BD00BF0F
:10267000240E0208B40A0020C40D02087042002093
:10268000540E0208800E020880B586B000AF0346E3
:102690003960FB8013467B7103F016FC386114E04F
:1026A000386903F023FCF860FB680A2B05D9304831
:1026B00003F012FB4FF0FF3355E02E4B1B68FA6816
:1026C0009A4202D92B4AFB681360FFF71FFF0346AB
:1026D000002BE5D1284B1B881946284A0B469B0046
:1026E0000B449B001344FA881A80234B1B8819461D
:1026F000224A0B469B000B449B00134402337A7919
:102700001A7000237B6114E03B685A1C3A601A4A35
:10271000128811461878194A0B469B000B449B00FF
:102720001A447B691344033302461A707B690133F0
:102730007B617B797A699A42E6DB0F4B1B88013318
:102740009AB20D4B1A800C4B1B881F2B02D90A4BD7
:1027500000221A800A4808F06BFD0346202B01D1A5
:1027600000F010F8002318461837BD4680BD00BFA2
:10277000B00E02088C0800208A08002008060020FD
:102780007042002080B582B000AFFFF78BFE034699
:10279000002B40D1234B1B78002B3ED1224B1B88B2
:1027A0001946224A0B469B000B449B0013441B888E
:1027B000FB801D4B1B8819461C4A0B469B000B4493
:1027C0009B00134402331B787B71174B1B881A46FE
:1027D00013469B0013449B00144A134403333B608D
:1027E000114B1B8801339AB20F4B1A800E4B1B887A
:1027F0001F2B02D90C4B00221A807B799AB2FB88DE
:1028000039681846FFF7A6FE0346002B06D0084895
:1028100003F062FA02E000BF00E000BF0837BD46E7
:1028200080BD00BFB40A00208808002008060020F0
:10283000D80E020880B582B000AF0346FB80BB1DF6
:10284000022219467E20FFF71FFF00BF0837BD4652
:1028500080BD80B582B000AF78603B1D0422194670
:102860007A20FFF711FF00BF0837BD4680BD80B555
:1028700082B000AF0346FB80BB1D022219467520C3
:10288000FFF702FF00BF0837BD4680BD80B582B0AC
:1028900000AF7860102279681420FFF7F5FE00BFC2
:1028A0000837BD4680BD80B582B000AF78603B1D63
:1028B000042219462420FFF7E7FE00BF0837BD4673
:1028C00080BD000080B483B000AF0346FB80044AA3
:1028D000FB88138000BF0C37BD465DF8047B704752
:1028E000A808002080B582B000AF134B80221A8068
:1028F000114B1B881846FFF79DFF00237B6078680B
:1029000005F004F97868FFF7A4FF00237B807B883B
:102910001846FFF7D7FF7B881846FFF7A8FF074B3D
:1029200000221A70012205497920FFF7ADFE00BF91
:102930000837BD4680BD00BF94080020AA080020CB
:1029400080B500AF044B01221A70102203491420F5
:10295000FFF742FD00BF80BDBE0A00203C00002002
:1029600080B500AF044B01221A70042203492420D1
:10297000FFF732FD00BF80BDBF0A00200406002023
:1029800080B487B000AFF860B9607A60FB68DB4361
:10299000FB601DE0BB685A1CBA601B781A46FB68D6
:1029A0005340FB6000237B610FE0FB6803F00103F1
:1029B000002B04D0FB685A080C4B534001E0FB6825
:1029C0005B08FB607B6901337B617B69072BECDD76
:1029D0007B685A1E7A60002BDCD1FB68DB4318460B
:1029E0001C37BD465DF8047B704700BF783BF6821C
:1029F00080B500AF0C2205490020FFF7C1FF034658
:102A0000034A1360024B1B68184680BDF405002082
:102A10009808002080B582B000AF1A4B1B88DB43BA
:102A2000FB80FB88B3F5007F28BF4FF400739AB298
:102A3000154B1A80144B1B88002B03D1134803F04D
:102A40004BF91CE00F4B1B880F4A128812B2104939
:102A50001846FFF7C1FC0B4B1B881A460A4B1B8814
:102A600013443B603B684FF6FE72934203D9054B1B
:102A700080221A8003E03B689AB2024B1A80083722
:102A8000BD4680BDAC0A00204E000020540F020855
:102A9000AC08002080B582B000AF1C4B1A881C4BDC
:102AA0001B88D31AFB80FB88B3F5007F28BF4FF447
:102AB00000739AB2174B1A80164B1B88002B03D158
:102AC000154803F009F91DE0114B1B88114A1288C3
:102AD00012B212491846FFF77FFC0D4B1B881A46AD
:102AE0000C4B1B8813443B60084B1B881A463B6801
:102AF000934203D30A4B01221A7003E03B689AB257
:102B0000034B1A800837BD4680BD00BF94080020E3
:102B1000AC0A00204E0000208C0F0208AC080020F8
:102B2000BD0A00202DE9F04186B006AF874B1B7827
:102B3000002B06D0854B00221A70854B01221A709B
:102B400000E1844B1B78002B09D0824B00221A70C5
:102B5000814B1B881946814803F0BEF8F2E0804B98
:102B60001B78002B0ED07E4B00221A707D4B1B6809
:102B7000184604F0CBFF7B4B1B6819467A4803F0DC
:102B8000ABF8DFE0794B1B78002B0ED0774B00229F
:102B90001A70774B1B881846FFF794FE744B1B88FE
:102BA0001946744803F098F8CCE0734B1B78002B5F
:102BB00009D0714B00221A70704B1B68194670487F
:102BC00003F08AF8BEE06F4B1B78002B09D06D4BE9
:102BD00000221A706C4B1B6819466C4803F07CF895
:102BE000B0E06B4B1B78002B03D0694B00221A70AE
:102BF000A8E0684B1B78002B3AD0664B00221A7075
:102C0000FFF7F6FE644BDA68644B1B689A4206D005
:102C1000634803F061F8634B01221A7005E06248D3
:102C200003F05AF85F4B00221A705B4BB3F9003087
:102C30001E46594BB3F902309846574B5B6818460D
:102C4000FDF7BAFC04460D46534B9B681846FDF74A
:102C5000B3FC02460B465049C9680491CDE90223F2
:102C6000CDE9004542463146504803F035F869E069
:102C70004F4B1B78002B07D04D4B00221A704D494B
:102C80004D4803F029F85DE04C4B1B78002B09D030
:102C90004A4B00221A704A4B1B681946494803F0F8
:102CA0001BF84FE0484B1B78002B03D0464B00220B
:102CB0001A7047E0454B1B78002B03D0434B002292
:102CC0001A703FE0424B1B78002B3BD0414B1B78E6
:102CD000002B06D03E4B00221A703F4B01221A7087
:102CE00030E03E4B1B78002B29D03C4B00221A7061
:102CF0003B4B1B78002B0DD1174B1B88802B09D128
:102D0000334B00221A70344B00221A70354802F0FF
:102D1000E3FF17E0324B1B78012B0AD10E4B1B88C7
:102D2000802B06D00C4B1A882F4B1A80FFF772FEAF
:102D300008E02D4B80221A80FFF7ACFE02E0264B04
:102D400001221A70BD46BDE8F08100BFB90A00201B
:102D5000B60A0020AE0A002094080020F40F0208F2
:102D6000AF0A00209C0800200C100208B00A0020C6
:102D7000A808002024100208B10A0020A0080020A2
:102D800038100208B20A0020A40800204C100208E3
:102D9000B30A0020BA0A0020F40500209808002099
:102DA000641002084C00002084100208A4100208DD
:102DB000BE0A00203C000020F0100208BF0A0020DC
:102DC0000406002008110208B70A0020B80A0020F3
:102DD000BB0A0020BD0A0020B50A0020BC0A002062
:102DE000AA0800201C110208AC0A002080B582B09D
:102DF00000AF0346FB71FB791A464FF4806103482C
:102E000007F0E2FD00BF0837BD4680BD0004024068
:102E100080B582B000AF03460A46FB711346BB7112
:102E2000FB79013B072B4CD801A252F823F000BFDD
:102E3000512E00085F2E00086D2E00087B2E000822
:102E4000892E0008972E0008A52E0008B32E000832
:102E5000BB791A4601211D4807F0B6FD31E0BB7968
:102E60001A460221194807F0AFFD2AE0BB791A463D
:102E70000421164807F0A8FD23E0BB791A46082173
:102E8000124807F0A1FD1CE0BB791A4620210F482B
:102E900007F09AFD15E0BB791A4640210B4807F070
:102EA00093FD0EE0BB791A468021084807F08CFD9F
:102EB00007E0BB791A464FF48071044807F084FD9F
:102EC00000BF00BF0837BD4680BD00BF00180240EC
:102ED00080B500AF01220121024807F075FD00BF57
:102EE00080BD00BF0018024080B500AF0022012164
:102EF000024807F069FD00BF80BD00BF0018024016
:102F000080B500AF01220221024807F05DFD00BF3D
:102F100080BD00BF0018024080B500AF0022022132
:102F2000024807F051FD00BF80BD00BF00180240FD
:102F300080B500AF01220421024807F045FD00BF23
:102F400080BD00BF0018024080B500AF0022042100
:102F5000024807F039FD00BF80BD00BF00180240E5
:102F600080B500AF01220821024807F02DFD00BF07
:102F700080BD00BF0018024080B500AF00220821CC
:102F8000024807F021FD00BF80BD00BF00180240CD
:102F900080B500AF01222021024807F015FD00BFD7
:102FA00080BD00BF0018024080B500AF0022202184
:102FB000024807F009FD00BF80BD00BF00180240B5
:102FC00080B500AF01224021024807F0FDFC00BFA0
:102FD00080BD00BF0018024080B500AF0022402134
:102FE000024807F0F1FC00BF80BD00BF001802409E
:102FF00080B500AF01228021024807F0E5FC00BF48
:1030000080BD00BF0018024080B500AF00228021C3
:10301000024807F0D9FC00BF80BD00BF0018024085
:1030200080B582B000AF03460A46FB711346BB7100
:10303000FB79013B032B2BD801A252F823F000BFF0
:1030400051300008613000087130000881300008FC
:10305000BB791A464FF400410F4807F0B5FC17E062
:10306000BB791A464FF480410B4807F0ADFC0FE0E6
:10307000BB791A464FF48061074807F0A5FC07E0CA
:10308000BB791A464FF40071034807F09DFC00BF5E
:1030900000BF0837BD4680BD000C024080B582B03D
:1030A00000AF03460A46FB711346BB71FB79032B45
:1030B00016D0032B1CDC012B02D0022B08D017E00A
:1030C000BB791A464FF400610B4807F07DFC0FE016
:1030D000BB791A464FF48051074807F075FC07E0AA
:1030E000BB791A464FF40051034807F06DFC00BF4E
:1030F00000BF0837BD4680BD000C024080B582B0DD
:1031000000AF0346FB71FB791A462021034807F004
:103110005BFC00BF0837BD4680BD00BF0010024009
:1031200080B500AF01222021024807F04DFC00BF0E
:1031300080BD00BF0010024080B500AF00222021FA
:10314000024807F041FC00BF80BD00BF00100240F4
:1031500080B582B000AF0346FB71FB791A464FF48D
:103160008041034807F030FC00BF0837BD4680BDF2
:103170000018024080B582B000AF0346FB71FB79B6
:103180001A464FF48061034807F01EFC00BF083761
:10319000BD4680BD0000024080B582B000AF03464E
:1031A000FB71FB791A464021034807F00DFC00BF74
:1031B0000837BD4680BD00BF0010024080B582B018
:1031C00000AF0346FB71FB791A464FF400610348D8
:1031D00007F0FAFB00BF0837BD4680BD0010024073
:1031E00080B582B000AF0346FB71FB791A4680219F
:1031F000034807F0E9FB00BF0837BD4680BD00BFAC
:103200000010024080B582B000AF78607B68002279
:103210000021034806F08BFD00BF0837BD4680BD86
:10322000F44C00200000000080B584B000AF0346DD
:10323000FB800023FB604FF00003BB60FB88224A49
:1032400013602FE0D7ED027A9FED207A67EE877A40
:1032500017EE900AFDF7B0F917A3D3E90023FDF7A5
:103260002DFB02460B4610461946FDF7D5FC0346DA
:10327000FB60FB6800220021154806F058FDB86885
:10328000FDF79AF90EA3D3E90023FDF737F80246BC
:103290000B4610461946FDF7DFFC0346BB602820AD
:1032A00005F0FCFDFB88FA689A42CBD300BF00BF53
:1032B0001037BD4680BD00BF6666666666660A401A
:1032C0009A9999999999A93FC00A002000008045D0
:1032D000F44C002080B582B000AF0D4B1B687B60C2
:1032E0000EE07B68323B7B607B680022002109484E
:1032F00006F01DFD064A7B681360282005F0CEFD10
:103300007B68322BEDD800BF00BF0837BD4680BDBB
:10331000C00A0020F44C002080B483B000AF034604
:10332000FB71FB79002B05D0074B1B6840F6C412DC
:103330005A6303E0044B1B6800225A6300BF0C373A
:10334000BD465DF8047B70472471002080B582B0D3
:1033500000AF0346FB71FB79002B03D00120FFF780
:10336000DBFF02E00020FFF7D7FFFB79012B01D143
:10337000054B00E0054B1946054802F0ADFC00BFC7
:103380000837BD4680BD00BF8011020884110208C5
:103390008811020880B500AF0020FFF7FDFE002075
:1033A000FFF71EFF0020FFF72DFF0020FFF706FFAD
:1033B0000020FFF7B1FF00BF80BD000080B58AB0DC
:1033C00002AF0023BB610023FB610120FFF7E4FE95
:1033D0003B1D5149184619F03DFD3B1D1846FCF7B1
:1033E00029FF0346BB61BB69DBB23A1D009313465C
:1033F00000220021012000F015FB0023FB6102E008
:10340000FB690133FB61FB69444A9342F8D3012015
:10341000FFF7D4FE3B1D4249184619F01BFD3B1D2A
:103420001846FCF707FF0346BB61BB69DBB23A1DD8
:103430000093134600220121012000F0F3FA00233B
:10344000FB6102E0FB690133FB61FB69354A934292
:10345000F8D900F0E3F80346002B40D000F0D2F892
:1034600000224FF40061304807F0AEFA3B1D2F49AF
:10347000184619F0EFFC3B1D381D2D4A142119F098
:10348000B5FCB861BB69DBB2013BDBB23A1D00930E
:10349000134600220221012000F0C4FA4FF47A7092
:1034A00005F0FCFC0120FFF79BFE3B1D214918465F
:1034B00019F0D0FC3B1D1846FCF7BCFE0346BB616F
:1034C000BB69DBB23A1D00931346002203210120A1
:1034D00000F0A8FA4FF47A7005F0E0FC18E03B1D0C
:1034E0001549184619F0B6FC3B1D1846FCF7A2FE1C
:1034F0000346BB61BB69DBB23A1D00931346002251
:103500000221012000F08EFA4FF4FA6005F0C6FCAB
:1035100000BF2037BD4680BD9011020880969800FC
:103520009C1102087FC3C901000C0240A8110208C7
:10353000BC110208C0110208D011020880B588B081
:1035400002AF00237B610020FFF74AFE3B462A4979
:10355000184619F07FFC3B461846FCF76BFE034605
:103560007B617B69DBB23A4600931346002200215F
:10357000012000F057FA4FF4FA6005F08FFC0020AC
:10358000FFF71CFE3B461D49184619F063FC3B46FD
:103590001846FCF74FFE03467B617B69DBB23A4677
:1035A0000093134600220121012000F03BFA4FF462
:1035B000FA6005F073FC0020FFF7EEFD3B46104972
:1035C000184619F047FC3B461846FCF733FE034605
:1035D0007B617B69DBB23A460093134600220221ED
:1035E000012000F01FFA4FF4FA6005F057FC00BF0D
:1035F0001837BD4680BD00BFE8110208F811020867
:103600000412020880B400AF034B0022DA7100BF3D
:10361000BD465DF8047B7047401D002080B400AFBC
:10362000034BDB791846BD465DF8047B704700BF4D
:10363000401D002080B483B000AF0346FB71044AF4
:10364000FB79937100BF0C37BD465DF8047B704772
:10365000401D002080B483B000AF0346FB71044AD4
:10366000FB79D37100BF0C37BD465DF8047B704712
:10367000401D002080B400AF034B1B781846BD46A8
:103680005DF8047B704700BFD80A002080B483B087
:1036900000AF0346FB71044AFB79137000BF0C377F
:1036A000BD465DF8047B7047D80A002080B483B023
:1036B00000AF144B1A88144B1B88D31A9BB2FB80A3
:1036C000FA88124B1A80B7F90630002B01D101237A
:1036D00011E0B7F90630002B03DAFB8810339BB2F8
:1036E000FB80B7F906300A4A1288934202DDFA8855
:1036F000074B1A80002318460C37BD465DF8047B43
:10370000704700BFCE0A0020CC0A0020D60A002055
:10371000D40A002080B483B000AF0E4B1A880E4B41
:103720001B88D31A9BB2FB80B7F90630002B03DA53
:10373000FB8810339BB2FB80B7F906300F2B01D109
:10374000012300E0002318460C37BD465DF8047BDA
:10375000704700BFCE0A0020CC0A002080B582B09E
:1037600000AFFFF7A3FF0346002B6AD1384B1B784D
:10377000002B68D1374807F05BFD0346202B03D0B0
:10378000354802F0A9FA5FE015222021334818F0ED
:1037900001FE334B1B881A46324B9B5CFB71304B4E
:1037A0001B881A4613465B001344DA00D21A2E4BCC
:1037B0001344FA791946294818F0DEFD284B1B8876
:1037C0001A4613465B001344DA00D21A264B134400
:1037D00015222021184618F0DDFD204B5B78512B77
:1037E00002D11B4B01221A701D4B1B8801339AB268
:1037F0001B4B1A801A4B1B880F2B02D9184B002227
:103800001A80FB799BB2154A5021124807F0ACFA96
:103810000346BB71BB79002B0FD0144B1B7883F090
:103820000103DBB2002B0FD0BB791946104802F020
:1038300053FA0E4B01221A7006E00C4B00221A704C
:1038400002E000BF00E000BF0837BD4680BD00BFFA
:10385000D80A0020A043002014120208C81B002030
:10386000CC0A0020E01B0020F01B0020D90A002019
:103870003012020880B584B000AF78600B46FB7050
:1038800002F022FBF8600EE0F86802F02FFBB8604F
:10389000BB680A2B42D8244B1B68BA689A4202D9EB
:1038A000214ABB681360FFF735FF0346002BEBD1BD
:1038B000FB78142B07D9FB78142219461B4802F019
:1038C0000BFA1423FB701A4B1B881A4613465B0035
:1038D0001344DA00D21A174B1344FA787968184661
:1038E00018F04AFD124B1B881946134AFB785354B3
:1038F0000F4B1B8801339AB20D4B1A800C4B1B885F
:103900000F2B02D90A4B00221A800C4807F090FCBA
:103910000346202B04D1FFF721FF01E000BF00E0A8
:1039200000BF1037BD4680BDD00A00206C120208CF
:10393000CE0A0020F01B0020E01B0020A043002046
:1039400080B582B000AF45F2FE13BB803B1D022163
:103950001846FFF78FFF00BF0837BD4680BD80B512
:1039600084B000AF0346FB71FE23BB81FB79002BC3
:1039700001D04B2300E04C237B7307F10C030221A1
:103980001846FFF777FF00BF1037BD4680BD000027
:1039900080B584B000AF03460A46FB711346BB7185
:1039A000144A07F10C031268114619800233120CF5
:1039B0001A70FB79032B0BD0FB79022B06D0FB7915
:1039C000012B01D1402304E0002302E0142300E096
:1039D0005423BB73BA7BBB791344DBB2BB7307F1CF
:1039E0000C0303211846FFF745FF00BF1037BD4603
:1039F00080BD00BFB012020880B582B000AF084A97
:103A00003B1D1268114619800233120C1A703B1DBF
:103A100003211846FFF72EFF00BF0837BD4680BDC3
:103A2000B412020880B584B000AF3B600346FB715E
:103A30000B46BB7113467B710023FB73FB79002B94
:103A400001D0FFF77DFF7A79BB7911461846FFF761
:103A50009FFF3B7E19463868FFF70CFFFB7B18463B
:103A60001037BD4680BD000080B58CB002AF154B4D
:103A700000221A80144B00221A80144802F02CF9FC
:103A80000A2005F00BFAFFF7B7FF0B2004F04EF801
:103A90000346381D0E4A202119F0A8F978627B6A86
:103AA000DBB23A1D00931346002200210120FFF7EC
:103AB000B9FF0020FFF753FF064B18462837BD46D5
:103AC00080BD00BFCC0A0020CE0A0020B812020838
:103AD000C4120208C40A002080B582B000AF0346B9
:103AE000FB71FB79002B06D001224FF4806107485F
:103AF00006F06AFF05E000224FF48061034806F0FB
:103B000063FF00BF0837BD4680BD00BF0000024014
:103B100090B585B000AF0446084611461A462346C4
:103B2000FB710346BB710B46BB8013467B80FB7960
:103B30000A2B40F09B800023FB6092E0BB79022BB4
:103B400031D0022B00F38780002B02D0012B15D03F
:103B500081E09049FA681346DB0013449B000B4454
:103B6000023301221A708B49FA681346DB001344B2
:103B70009B000B44033300221A706FE08549FA68FA
:103B80001346DB0013449B000B44013301221A70DF
:103B90008049FA681346DB0013449B000B4403334F
:103BA00000221A705AE07B49FA681346DB0013447E
:103BB0009B000B4410331B78002B4ED07549FA68DC
:103BC0001346DB0013449B000B4403331B7883F044
:103BD0000103DBB2002B40D06E49FA681346DB00CC
:103BE00013449B000B44033301221A706949FA689D
:103BF0001346DB0013449B000B440C33BA881A8035
:103C00006449FA681346DB0013449B000B440E33EF
:103C10007A881A8002F096F901465E48FA681346DF
:103C2000DB0013449B000344043319605949FA68CC
:103C30001346DB0013449B000B44083300221A6038
:103C40005449FA681346DB0013449B000B441033BD
:103C500001221A7001E000BF00E000BFFB680133E1
:103C6000FB60FB68092B7FF669AF8FE0BB79022B05
:103C700031D0022B00F38780002B02D0012B15D00E
:103C800081E0FA7943491346DB0013449B000B445F
:103C9000023301221A70FA793E491346DB001344BD
:103CA0009B000B44033300221A706FE0FA79394904
:103CB0001346DB0013449B000B44013301221A70AE
:103CC000FA7934491346DB0013449B000B44033359
:103CD00000221A705AE0FA792E491346DB00134489
:103CE0009B000B4410331B78002B4ED0FA792949E6
:103CF0001346DB0013449B000B4403331B7883F013
:103D00000103DBB2002B40D0FA7922491346DB00D5
:103D100013449B000B44033301221A70FA791D49A6
:103D20001346DB0013449B000B440C33BA881A8003
:103D3000FA7918491346DB0013449B000B440E33F9
:103D40007A881A80FC7902F0FDF802461149234670
:103D5000DB0023449B000B4404331A60FA790D49BD
:103D60001346DB0013449B000B44083300221A6007
:103D7000FA7908491346DB0013449B000B441033C7
:103D800001221A7001E000BF00E000BF00BF14373D
:103D9000BD4690BD5000002080B582B000AF00232A
:103DA0007B604EE09B497A681346DB0013449B001E
:103DB0000B4402331B78002B40D096497A68134697
:103DC000DB0013449B000B44023300221A7091491C
:103DD0007A681346DB0013449B000B4414331B68C2
:103DE000002B16D08B497A681346DB0013449B00E6
:103DF0000B441433186887497A681346DB00134470
:103E00009B000B4418331B880022194606F0DCFD8A
:103E100014E080497A681346DB0013449B000B448E
:103E200020331B68002B09D07A497A681346DB00DF
:103E300013449B000B4420331B6898477B68013375
:103E40007B607B68092BADD900237B604EE0714914
:103E50007A681346DB0013449B000B4401331B7844
:103E6000002B40D06B497A681346DB0013449B005B
:103E70000B44013300221A7066497A681346DB004E
:103E800013449B000B4414331B68002B16D061496C
:103E90007A681346DB0013449B000B441433186804
:103EA0005C497A681346DB0013449B000B441833CB
:103EB0001B880122194606F087FD14E055497A68EF
:103EC0001346DB0013449B000B4420331B68002B7C
:103ED00009D050497A681346DB0013449B000B4419
:103EE0001C331B6898477B6801337B607B68092B18
:103EF000ADD900237B60FDE046497A681346DB00BC
:103F000013449B000B4410331B78002B00F0EA8015
:103F100040497A681346DB0013449B000B4403338B
:103F20001B78002B00F0DE803A497A681346DB00EC
:103F300013449B000B4410331B78012B02D0022B3F
:103F40006AD0D4E001F0FEFF014632487A68134699
:103F5000DB0013449B00034404331B68C91A2D483B
:103F60007A681346DB0013449B0003440C331B8820
:103F70009942C0F0B98001F0E5FF014625487A6812
:103F80001346DB0013449B000344083319602149A6
:103F90007A681346DB0013449B000B441033022263
:103FA0001A701C497A681346DB0013449B000B44CB
:103FB00014331B68002B16D016497A681346DB00B1
:103FC00013449B000B441433186812497A68134653
:103FD000DB0013449B000B4418331B880022194656
:103FE00006F0F2FC80E00B497A681346DB001344CC
:103FF0009B000B4420331B68002B75D005497A6861
:104000001346DB0013449B000B4420331B68984786
:104010006AE000BF5000002001F094FF01463A48DA
:104020007A681346DB0013449B00034408331B6883
:10403000C91A35487A681346DB0013449B000344D1
:104040000E331B88994251D301F07CFF01462E4864
:104050007A681346DB0013449B0003440433196061
:1040600029497A681346DB0013449B000B44103344
:1040700001221A7024497A681346DB0013449B001E
:104080000B4414331B68002B16D01F497A68134663
:10409000DB0013449B000B44143318681A497A68F8
:1040A0001346DB0013449B000B4418331B8801228A
:1040B000194606F089FC19E013497A681346DB00BB
:1040C00013449B000B4420331B68002B0ED00E4979
:1040D0007A681346DB0013449B000B441C331B68B7
:1040E000984703E000BF02E000BF00E000BF7B682C
:1040F00001337B607B68092B7FF6FEAE00BF00BFFB
:104100000837BD4680BD00BF5000002080B400AF1E
:104110000D4B00221A710C4B00229A700A4B4FF47F
:1041200000621A84084B00225A71074B0022DA7190
:10413000054B00229A71044B00221A7200BFBD4643
:104140005DF8047B704700BF401D002080B586B03D
:1041500002AF78600B467B807B884FF0FF32009285
:104160007A687021084806F00BFD0346FB73FB7B61
:10417000002B04D0FB7B1946044801F0ADFD00BFC5
:104180001037BD4680BD00BFA0430020CC120208FE
:1041900080B582B000AF0421064806F0FDFB03465F
:1041A000002B0CBF01230023FB71FB791846083755
:1041B000BD4680BD0010024080B584B002AF002330
:1041C000BB71BA1D4FF0FF330093012370211148DA
:1041D00006F0D6FC0346FB71FB79002B10D10123BE
:1041E0000D4A70210B4806F02FFE0346FB71FB7948
:1041F000002B0AD0FB791946084801F06DFD04E058
:10420000FB791946064801F067FD00BF0837BD4637
:1042100080BD00BFA04300204A1D0020E812020814
:104220000413020880B582B000AF40233B71102315
:104230007B713B1D02211846FFF788FF01233B716C
:1042400089237B713B1D02211846FFF77FFF052361
:104250003B71FF237B713B1D02211846FFF776FF60
:1042600030233B7133237B713B1D02211846FFF73E
:104270006DFF35233B7130237B713B1D02211846B6
:10428000FFF764FF43233B71C1237B713B1D022178
:104290001846FFF75BFF02233B710A237B713B1D2E
:1042A00002211846FFF752FF03233B7101237B7164
:1042B0003B1D02211846FFF749FF02210348FFF783
:1042C00045FF00BF0837BD4680BD00BFC4010020C8
:1042D00080B500AF054801F0FFFCFFF7A3FF044BDA
:1042E000044A1A60034B184680BD00BF2013020821
:1042F000E80A0020DC0A002080B485B000AF034645
:10430000FB710123FB600CE00B4AFB6813441B7834
:10431000FA799A4202D1FB68DBB206E0FB6801330E
:10432000FB60FB68092BEFD9002318461437BD4604
:104330005DF8047B704700BFB801002080B584B0F1
:1043400000AF0023FB735A4B1B78002B01D0FB7B83
:10435000AAE0584B1B68BB60574B1B7A002B09D057
:10436000554B00221A72FFF727FF01F0ADFD0346FF
:10437000524A1360504B1B79002B00F084804E4B47
:1043800000221A714C4B9B7A03F04003002B34D16E
:10439000494B9B7A03F03F03DAB2BB689A70BB6863
:1043A0009B783E2B20D1BB689B68002B05D101F088
:1043B000C9FD0246BB689A6065E001F0C3FD024694
:1043C000BB689B68D31A44F61F6293425BD9BB68F3
:1043D00000229A60BB6803221A70354B01221A70C2
:1043E000374801F079FC4EE001F0ACFD0246BB68B5
:1043F0005A60BB6800229A6045E02F4B9B7A03F01D
:104400003F03FB71BB685B68002B3CD0BB689B78AB
:10441000FA799A4237D101F095FD0246BB685B6894
:10442000D31AB3F57A6F03D3BB6801221A700FE079
:1044300001F088FD0246BB685B68D31AB3F5FA6FDA
:1044400003D3BB6802221A7002E0BB6800221A7014
:10445000BB689B781846FFF74FFF03461A46BB68B8
:104460005A70BB6800225A60114B1B7883F001031D
:10447000DBB2002B07D00123FB73BB685B781946C6
:10448000104801F029FCFFF783FE0346002B0AD0F9
:1044900001F01AFD0246094B1B68D31AB3F5FA7FE7
:1044A00001D3FFF789FEFB7B18461037BD4680BD60
:1044B000EC0A0020E80A0020401D0020641D0020B6
:1044C000301302085C13020880B485B000AF786036
:1044D0003960084B1B68FB60FB685A787B681A7070
:1044E000FB681A783B681A7000BF1437BD465DF848
:1044F000047B7047E80A002080B582B000AF034615
:10450000FB71FB79002B06D001224FF48041074854
:1045100006F05AFA05E000224FF48041034806F005
:1045200053FA00BF0837BD4680BD00BF00180240E7
:1045300080B582B000AF3B233B71094B1B7823F061
:104540001003DAB2064B1A70054B1B787B713B1DCA
:1045500002211846FFF7FAFD00BF0837BD4680BDAF
:10456000C601002080B582B000AF3B233B71094BF0
:104570001B7843F01003DAB2064B1A70054B1B7818
:104580007B713B1D02211846FFF7E0FD00BF083795
:10459000BD4680BDC601002080B582B000AF3B2380
:1045A0003B71094B1B7823F02003DAB2064B1A70DB
:1045B000054B1B787B713B1D02211846FFF7C6FD9A
:1045C00000BF0837BD4680BDC601002080B582B05F
:1045D00000AF3B233B71094B1B7843F02003DAB259
:1045E000064B1A70054B1B787B713B1D0221184648
:1045F000FFF7ACFD00BF0837BD4680BDC6010020F7
:1046000080B483B000AF0346FB71FB792F2B02D936
:10461000FB79392B0BD9FB79402B02D9FB795A2B2B
:1046200005D9FB79602B05D9FB797A2B02D84FF09D
:10463000FF3300E0002318460C37BD465DF8047BCD
:104640007047000080B584B000AF78600023BB6085
:104650007B68002B01D1002323E00023FB811AE0BB
:10466000FA891346DB009B1A9B00104A13447968B1
:104670001846FBF7D5FD0346002B09D1FA891346EE
:10468000DB009B1A9B00094A1344BB60BB6808E02F
:10469000FB890133FB81064B1B88FA899A42DFD9DB
:1046A000002318461037BD4680BD00BFF00A002029
:1046B000F018002080B586B000AFF860B9607A606D
:1046C00000237B617B683B613B6900221A60FB68C9
:1046D0001B68002B01D103231CE0FB681B681846F4
:1046E000FFF7B0FF78617B69002B01D1032311E054
:1046F0007B695B69BA689A4201DA04230AE07B6944
:104700009B69BA689A4201DD052303E07B687A69F8
:104710001A60002318461837BD4680BD80B584B0A6
:1047200000AF786039600023BB600223FB737B68B5
:10473000002B39DD07F108031A4679683868FFF75E
:10474000B9FF0346FB73FB7B002B10D1BB681B69D1
:104750003968786898470346002B26D03B681B6869
:104760001946144801F0B8FA0623FB731DE0FB7BE1
:10477000052B11D0052B13DC032B02D0042B07D003
:104780000EE03B681B6819460B4801F0A5FA0CE0E7
:104790000A4801F0A1FA08E0094801F09DFA04E096
:1047A000084801F099FA00E000BFFB7B184610377B
:1047B000BD4680BD6C1302088C130208A8130208C2
:1047C000C4130208E413020880B584B000AF786017
:1047D0000023FB607B68BB60504B00221A608CE0BA
:1047E000BB681B78222B15D1BB680133BB600DE081
:1047F000BB685A1CBA60494A1268494951F82210EC
:10480000FA68501CF8600A441B781370BB681B7868
:10481000222BEDD1BB681B781846FFF7F1FE03464B
:10482000002B0CD03D4B1B683D4A52F82320FB68FF
:10483000591CF9601344BA6812781A7043E0BB68D7
:104840001B782E2B1FD0BB681B785F2B1BD0BB683F
:104850001B782D2B17D0BB681B782F2B13D0BB6870
:104860001B782B2B0FD0BB681B783D2B0BD0BB6864
:104870001B783E2B07D0BB681B783A2B03D0BB6854
:104880001B783F2B0CD1254B1B68254A52F823205F
:10489000FB68591CF9601344BA6812781A7012E068
:1048A000FB68002B0FD01D4B1B681D4A52F82320BC
:1048B000FB68134400221A700023FB60174B1B682F
:1048C0000133164A1360BB680133BB60BB681B78B9
:1048D000002B12D1FB68002B0FD0104B1B68104A25
:1048E00052F82320FB68134400221A700023FB6057
:1048F0000A4B1B680133094A1360BB681B78002B05
:104900007FF46EAF054B1B6805491846FFF706FF9D
:10491000034618461037BD4680BD00BF341B00203B
:10492000F41A002080B584B000AFF860B9607A60F6
:104930003B60214B1B887F2B38D81F4B1B881A46A6
:104940001346DB009B1A9B001C4A1344F968184667
:1049500018F0ADFA184B1B881946184A0B46DB00B5
:104960005B1A9B0013441033BA681A60124B1B8801
:104970001946124A0B46DB005B1A9B0013441433A2
:104980007A681A600C4B1B8819460C4A0B46DB00F0
:104990005B1A9B00134418333A681A60064B1B8855
:1049A00001339AB2044B1A80002300E00123184619
:1049B0001037BD4680BD00BFF0180020F00A00206F
:1049C00080B582B000AF0023FB800AE0FA88FB8844
:1049D000520109490A44094941F82320FB8801335F
:1049E000FB80FB880F2BF1D9054801F075F900BF5A
:1049F0000837BD4680BD00BFF4180020F41A00201F
:104A00000014020880B400AF034B1B781846BD4663
:104A10005DF8047B704700BF391B002080B400AFF5
:104A2000034B1B781846BD465DF8047B704700BFFA
:104A30003A1B002080B400AF054B00221A60054BE2
:104A4000C8221A8000BFBD465DF8047B704700BFD6
:104A5000681D00206C1D00202DE9B04F86B006AF08
:104A6000414B1B68002B75D03F4B1B7803F00103B3
:104A7000DBB2002B44D03D4B1B683D4A1288B3FB90
:104A8000F2F102FB01F29B1A002B63D1394B1B7828
:104A9000002B05D1384801F0E5F9364B01221A7098
:104AA000FCF722FC10EE103A1846FBF785FD824613
:104AB0008B46FCF74DFB10EE103A1846FBF77CFDD9
:104AC00004460D46FCF788FB10EE103A1846FBF73B
:104AD00073FD80468946FCF7C3FB10EE103A18467A
:104AE000FBF76AFD02460B46CDE90423CDE90289B6
:104AF000CDE9004552465B46204801F033F929E0F4
:104B0000194B1B7803F00203DBB2002B22D0174BAA
:104B10001B68174A5288B3FBF2F102FB01F29B1AA1
:104B2000002B17D1134B1B78002B05D1144801F033
:104B300099F9104B01221A70FCF764FC0446FCF74B
:104B40006DFC0546FCF776FC03462A4621460D48D7
:104B500001F088F9054B1B680133044A13600023F8
:104B60001846BD46BDE8B08F681D00203C1B0020E4
:104B70006C1D0020381B00201C1402085C14020865
:104B80008C140208C814020880B582B000AF034636
:104B90000A46FB711346BB80244B00221A70FB7936
:104BA000012B03D9224801F097F83BE0BB88002B8A
:104BB00019D1204B00221A70FB79002B02D0012B57
:104BC00006D00BE01C4A13786FF30003137009E062
:104BD000194A13786FF34103137003E0164B002258
:104BE0001A6000BF1EE0BB88042B10D9FB79BA887D
:104BF0001249A1FB0212920891B2114A22F8131035
:104C0000BB88132B0DD8094B01221A7009E00A4BFF
:104C100000221A600B4801F0A5F805210A4801F0AE
:104C20005BF800BF0837BD4680BD00BF391B0020C0
:104C3000E0140208381B0020681D0020CDCCCCCC2D
:104C40006C1D0020101502082C15020880B584B0D8
:104C500000AF786039603B6804331B68224918460E
:104C6000FBF7DEFA0346002B07D10023FB731F4A34
:104C7000137843F00103137017E03B6804331B689B
:104C80001B491846FBF7CCFA0346002B07D101233A
:104C9000FB73164A137843F00203137005E01548BE
:104CA00001F01AF84FF0FF331AE07B68022B0EDD9B
:104CB0003B6808331B68184617F020FB0346BB818E
:104CC000BA89FB7B11461846FFF75EFF07E00A48EA
:104CD00001F048F8FB7BC8211846FFF755FF002379
:104CE00018461037BD4680BD64150208681D0020B7
:104CF0006C150208701502088C15020880B582B088
:104D000000AF78603960074800F0E6FF32233222B6
:104D100002210A20FEF7FCFE002318460837BD4694
:104D200080BD00BFC415020880B582B000AF7860B6
:104D30003960074800F0D0FF0023002201210A203B
:104D4000FEF7E6FE002318460837BD4680BD00BFCB
:104D50001016020880B582B000AF7860396007484D
:104D600000F0BAFF0023002200210A20FEF7D0FE47
:104D7000002318460837BD4680BD00BF3416020820
:104D800080B582B000AF78603960FDF7ABFD0448B4
:104D900000F0A2FF002318460837BD4680BD00BFC3
:104DA0005816020880B582B000AF78603960FDF710
:104DB000C7FD002318460837BD4680BD80B582B0C8
:104DC00000AF786039603B6804331B681846FDF714
:104DD0005DFD3B6804331B681946044800F07CFF06
:104DE000002318460837BD4680BD00BF5C16020888
:104DF00080B582B000AF78603960FDF7B1FD002367
:104E000018460837BD4680BD80B584B000AF7860D5
:104E100039603B6804331B680A220021184618F0E9
:104E20007BFF0346FB60F868FDF73DFD034800F09B
:104E300053FF002318461037BD4680BD58160208A0
:104E400080B584B002AF78603960094800F044FF53
:104E500042F21073009300234FF496724FF4967150
:104E60000120FCF79BFE002318460837BD4680BD95
:104E70007016020880B584B002AF786039600948C6
:104E800000F02AFF41F2883300934FF49673FA2220
:104E9000FA210220FCF782FE002318460837BD469F
:104EA00080BD00BF8016020880B584B002AF786074
:104EB0003960084800F010FF00230093002300220F
:104EC00000210020FCF76AFE002318460837BD4683
:104ED00080BD00BF9016020880B584B000AF786036
:104EE00039603B6804331B680021184618F036FE11
:104EF00087ED030AD7ED037AF5EEC07AF1EE10FAEA
:104F00000AD4F868FBF758FB11A3D3E90023FBF799
:104F10003BFE0346002B03D00B4800F023FF0BE0C1
:104F2000F868FBF749FB02460B46084800F01AFFF9
:104F300097ED030A01F0F0F9002318461037BD463B
:104F400080BD00BFAFF300809C160208CC1602089B
:104F50006666666666660A4080B582B000AF7860B5
:104F60003960054800F0FEFE01F02AFA00231846D9
:104F70000837BD4680BD00BFEC16020880B584B07E
:104F800000AF786039603B6804331B680A22002157
:104F9000184618F0C1FE0346FB733B6808331B68D4
:104FA0000A220021184618F0B7FE0346BB733B687F
:104FB0000C331B680A220021184618F0ADFE034688
:104FC0007B737A7BB97BFB7B184601F021FA0023C7
:104FD00018461037BD4680BD80B584B000AF7860FC
:104FE00039603B6804331B680A220021184618F018
:104FF00093FE0346FB733B6808331B680A220021BB
:10500000184618F089FE0346BB733B680C331B68D7
:105010000A220021184618F07FFE03467B733B6886
:1050200010331B680A220021184618F075FE03464B
:105030003B733B7B7A7BB97BF87B01F015FA00234D
:1050400018461037BD4680BD80B584B000AF78608B
:1050500039603B6804331B680A220021184618F0A7
:105060005BFE0346FB73FB7B002B03D0054B012249
:105070005A7102E0034B00225A7100231846103780
:10508000BD4680BD401D002080B584B000AF786073
:1050900039603B6804331B680A220021184618F067
:1050A0003BFE0346FB81FB894CF25032934205D90B
:1050B000074800F011FE4FF0FF3304E0FB8918466B
:1050C000FCF736FB002318461037BD4680BD00BFF5
:1050D0000417020880B584B000AF786039603B687F
:1050E00004331B680A220021184618F015FE0346F7
:1050F000FB81FB894CF25032934205D9074800F0FE
:10510000EBFD4FF0FF3304E0FB891846FCF78CFC05
:10511000002318461037BD4680BD00BF04170208A3
:1051200080B582B000AF78603960FCF76FFA002379
:1051300018460837BD4680BD80B582B000AF7860A4
:105140003960FCF7D1FB002318460837BD4680BD07
:1051500080B584B000AF786039603B6808331B6865
:1051600023491846FBF75CF80346002B01D10123C5
:10517000FB733B6808331B681E491846FBF750F861
:105180000346002B01D10023FB733B6804331B68EB
:10519000184617F0B3F80346BB733B6808331B6827
:1051A000184617F0ABF8B860BB7B082B05D912483E
:1051B00000F092FD4FF0FF3315E0BB68012B05DDD9
:1051C0000E4800F089FD4FF0FF330CE0FA7BBB7B0B
:1051D00011461846FDF71CFEBB7BFA7B19460848B2
:1051E00000F07AFD002318461037BD4680BD00BF91
:1051F00024170208281702082C170208481702086B
:105200008417020880B584B000AF786039603B68CD
:1052100004331B680A220021184618F07DFD03465E
:10522000FB73FB7B1846FEF791F8002318461037F6
:10523000BD4680BD80B584B000AF786039603B6802
:1052400004331B680A220021184618F065FD034646
:10525000FB73FB7B002B14BF01230023DAB2034B4B
:105260001A70002318461037BD4680BD3A1B002037
:1052700080B584B000AF786039603B6808331B6844
:105280001E491846FAF7CCFF0346002B01D1012333
:10529000FB733B6808331B6819491846FAF7C0FFCF
:1052A0000346002B01D10023FB733B6804331B68CA
:1052B000184617F023F80346BB733B6808331B6896
:1052C000184617F01BF8B860BB68012B05DD0D48C8
:1052D00000F002FD4FF0FF330CE0FA7BBB7B114680
:1052E0001846FDF79DFEBB7BFA7B1946064800F089
:1052F000F3FC002318461037BD4680BD2417020872
:1053000028170208A0170208E417020880B584B025
:1053100000AF786039603B6808331B681E49184647
:10532000FAF77EFF0346002B01D10123FB733B6894
:1053300008331B6819491846FAF772FF0346002B19
:1053400001D10023FB733B6804331B68184616F039
:10535000D5FF0346BB733B6808331B68184616F03D
:10536000CDFFB860BB68012B05DD0D4800F0B4FC33
:105370004FF0FF330CE0FA7BBB7B11461846FDF77C
:105380008DFEBB7BFA7B1946064800F0A5FC002386
:1053900018461037BD4680BD24170208281702089A
:1053A000081802084818020880B584B000AF786079
:1053B00039603B6804331B68184616F09FFF0346AC
:1053C000FB73FB7B012B05D90C4800F085FC4FF0EB
:1053D000FF330EE0FB7B002B14BF01230023DBB265
:1053E0001846FDF78BFEFB7B1946054800F074FC60
:1053F000002318461037BD4680BD00BF681802085C
:10540000A818020880B584B000AF786039603B68A6
:1054100004331B68184616F071FF0346FB73FB7BD1
:10542000012B05D90C4800F057FC4FF0FF330EE07C
:10543000FB7B002B14BF01230023DBB21846FDF7D2
:1054400087FEFB7B1946054800F046FC0023184602
:105450001037BD4680BD00BFC418020804190208F9
:1054600080B584B000AF786039603B6804331B6856
:10547000184616F043FF0346FB73FB7B012B05D94F
:105480000C4800F029FC4FF0FF330EE0FB7B002BB3
:1054900014BF01230023DBB21846FDF76BFEFB7B34
:1054A0001946054800F018FC002318461037BD4681
:1054B00080BD00BF281902086C19020880B584B0AD
:1054C00000AF786039603B6804331B68184616F0FB
:1054D00015FF0346FB73FB7B012B05D90C4800F03D
:1054E000FBFB4FF0FF330EE0FB7B002B14BF0123CF
:1054F0000023DBB21846FDF779FCFB7B1946054813
:1055000000F0EAFB002318461037BD4680BD00BFFF
:1055100090190208D019020880B584B000AF7860F5
:1055200039603B6804331B68184616F0E7FE0346F3
:10553000FB73FB7B012B05D90C4800F0CDFB4FF032
:10554000FF330EE0FB7B002B14BF01230023DBB2F3
:105550001846FDF721FEFB7B1946054800F0BCFB11
:10556000002318461037BD4680BD00BFF019020861
:10557000341A020880B584B000AF786039603B68A7
:1055800004331B68184616F0B9FE0346FB73FB7B19
:10559000012B05D90C4800F09FFB4FF0FF330EE0C4
:1055A000FB7B002B14BF01230023DBB21846FDF761
:1055B00005FEFB7B1946054800F08EFB00231846CC
:1055C0001037BD4680BD00BFB81A0208001B020894
:1055D00080B584B000AF786039603B6804331B68E5
:1055E000184616F08BFE0346FB73FB7B012B05D997
:1055F0000B4800F071FB4FF0FF330DE0FB7B002BFD
:1056000014BF01230023DAB2064B1A70FB7B194644
:10561000054800F061FB002318461037BD4680BDE9
:105620002C1B02084E1B0020701B020880B584B0A2
:1056300000AF786039603B6804331B68184616F089
:105640005DFE0346FB73FB7B012B05D90C4800F084
:1056500043FB4FF0FF330EE0FB7B002B14BF012315
:105660000023DBB21846FDF7BBFDFB7B194605485E
:1056700000F032FB002318461037BD4680BD00BF46
:10568000901B0208D81B020880B584B000AF786078
:1056900039603B6804331B68184616F02FFE03463A
:1056A000FB81FB89B3F5805F05D30A4800F014FB4A
:1056B0004FF0FF3309E0FB891946074800F00CFB67
:1056C000FB891846FDF79EFD002318461037BD469E
:1056D00080BD00BF001C0208301C020880B584B0E9
:1056E00000AF786039603B6804331B68184616F0D9
:1056F00005FE0346FB81FB89B3F5805F05D30A48AD
:1057000000F0EAFA4FF0FF3309E0FB891846FDF795
:105710008BFDFB891946054800F0DEFA0023184688
:105720001037BD4680BD00BF5C1C0208801C02080B
:1057300080B582B000AF78603960FDF7CBFD002303
:1057400018460837BD4680BD80B582B000AF78608E
:105750003960FDF733FE002318460837BD4680BD8B
:1057600080B582B000AF78603960FDF7E7FE0023B6
:1057700018460837BD4680BD80B500AF0123012221
:1057800076497748FFF7CEF802230222754976481A
:10579000FFF7C8F80123012274497548FFF7C2F8E2
:1057A0000223022273497448FFF7BCF80123012247
:1057B00072497348FFF7B6F8012301227149724814
:1057C000FFF7B0F80123012270497148FFF7AAF8EA
:1057D000012301226F497048FFF7A4F80123012239
:1057E0006E496F48FFF79EF8012301226D496E480C
:1057F000FFF798F8012301226C496D48FFF792F8F2
:10580000022302226B496C48FFF78CF80123012226
:105810006A496B48FFF786F80423042269496A48FD
:10582000FFF780F80523052268496948FFF77AF8F1
:105830000223022267496848FFF774F80223022214
:1058400066496748FFF76EF80223022265496648F9
:10585000FFF768F80123012264496548FFF762F801
:105860000123012263496448FFF75CF80223022206
:1058700062496348FFF756F80323022261496248F0
:10588000FFF750F80323032260496148FFF74AF805
:10589000032303225F496048FFF744F803230322F0
:1058A0005E495F48FFF73EF8022302225D495E48E9
:1058B000FFF738F8022302225C495D48FFF732F80F
:1058C000022302225B495C48FFF72CF802230222E4
:1058D0005A495B48FFF726F80223022259495A48E1
:1058E000FFF720F80223022258495948FFF71AF817
:1058F0000223022257495848FFF714F802230222D4
:1059000056495748FFF70EF80223022255495648D8
:10591000FFF708F80223022254495548FFF702F81E
:105920000123012253495448FEF7FCFF01230122C1
:1059300052495348FEF7F6FF0123012251495248CC
:10594000FEF7F0FF0223022250495148FEF7EAFF1A
:10595000504800F0C1F900BF80BD00BF814D000874
:10596000A41C0208BD4D0008AC1C0208A54D00088F
:10597000B81C0208094E0008C41C0208F14D0008BA
:10598000D41C0208FD4C0008E41C0208294D000844
:10599000F01C0208554D0008FC1C0208414E00088E
:1059A000081D0208754E0008141D0208A94E0008C3
:1059B000201D0208D94E00082C1D0208594F00086E
:1059C000341D02087D4F00083C1D0208D94F000815
:1059D000441D0208495000084C1D02088950000867
:1059E000581D0208D5500008601D0208215100080A
:1059F000681D020839510008701D02080552000890
:105A0000781D02084D4C0008801D02085151000805
:105A1000881D020871520008941D02080D530008E9
:105A2000A01D0208A9530008B01D02080554000873
:105A3000C01D020861540008D01D0208BD540008B2
:105A4000E01D020819550008EC1D020875550008F4
:105A5000FC1D0208D1550008041E02082D5600083E
:105A60000C1E020889560008181E0208DD560008A0
:105A7000241E020831570008301E0208495700084A
:105A80003C1E020861570008481E020835520008F3
:105A9000541E0208601E020880B500AF064B0022AB
:105AA0001A80064B00221A804FF40052002104484D
:105AB00016F070FC00BF80BD401B0020421B002080
:105AC000701F002080B483B000AF144B1A88144BB1
:105AD0001B88D31A9BB2FB80FA88124B1A80B7F945
